:1000000082EF03F0F76A140FF66E000EF722090074
:10001000F5501200070F1F1F1F1F1F1F1F1F1F005C
:10002000000000001C1E1F1F1F1F1F1F00000000DC
:10003000001F1F1F1F1F1F1F1F1F1E1C1F1F1F1FF3
:100040001F1F0F071F1F1F0000001F1F1F1F1F1F45
:100050001F1F1F1FF76A640FF66E000EF7220900BC
:10006000F550120080C094D444494555204B48496E
:10007000454E2042555A5A45520042555A5A455209
:100080003A002C54473A30004F464600204F4E006D
:1000900037AE02D0848401D084948490848037ACBD
:1000A00002D0848401D084948490848037AA02D0C2
:1000B000848401D084948490848037A802D084847E
:1000C00001D084948490848037A602D0848401D0A7
:1000D00084948490848037A402D0848401D0849452
:1000E0008490848037A202D0848401D08494849048
:1000F000848037A002D0848401D08494849084804A
:10010000120005C037F0C4DF04C037F0C1DF959698
:100110008C8695968C96000E016E120011C037F0F9
:10012000B7DF10C037F0B4DF0FC037F0B1DF0EC05B
:1001300037F0AEDF95988C8895988C98000E016EFC
:1001400054EF01F012C037F0A3DF13C037F0A0DF87
:1001500014C037F09DDF15C037F09ADF959C8C8C6A
:10016000959C8C9C000E016E55EF01F0EA6A2F0EF3
:10017000E96EEF500DE0060E016E006A002EFED70C
:10018000012EFBD77B0E006E002EFED7EF2EF3D78D
:100190001200800E2D6E2E6A2E50070821E32DC00E
:1001A00037F076DF036A2E50160FE96E000E03203B
:1001B000EA6EEF50FF0A2F6E376E6ADF959A8C8ACF
:1001C000959A8C9A010E2F6ED1DF376A61DF959A6E
:1001D0008C8A959A8C9A2E502E2AD8902D32DCD764
:1001E000000E016E56EF01F009C037F051DF08C074
:1001F00037F04EDF07C037F04BDF06C037F048DF7F
:1002000095948C8495948C94000E016E120031505C
:10021000076E071E32C006F0061EE6DF000E016EF6
:1002200012002D50096E091E2EC008F0081EDCDFDA
:10023000000E016E5CEF01F0366A34C037F028DF43
:1002400033C037F025DF366A32C037F021DF31C0E6
:1002500037F01EDF366A30C037F01ADF2FC037F0B4
:1002600017DF366A2EC037F013DF2DC037F010DFEE
:10027000959E8C8E959E8C9E000E016E65EF01F012
:1002800095908C80FF0E926E3C0E936EF10E946EE4
:10029000000E966E956E956A8C6AF19E32DF116A39
:1002A000106A0F6A0E6A3AD74DD773D73168326831
:1002B000AEDF2D682E68B5D72E6A2D6A306A2F6A98
:1002C000326A316A346A336AB7D795908C90C050DD
:1002D000C00B0209C06EC08EC280C150C00B0C0999
:1002E000C16EB50EB16E000E016EC3EF03F0030ECA
:1002F000315E09E3EA6A310EE96EEF5004E001D0A5
:1003000000D0EF2EFDD71200010E316E30C032F05A
:100310007EDF316A30C032F07ADFC80E316EE7DF3F
:10032000000E016E1200050E316E2FC032F06FDF2D
:10033000040E316E2FC032F06ADFC80E316ED7DF87
:10034000000E016E12003C0E306EDEDF050E2F6EC9
:100350000DDF3C0E306ED8DF050E2F6E07DF0C0E62
:10036000306ED2DF060E306ECFDF400E306ECCDF47
:100370002D6A2D503F0808E3036A2D5043DE2E6E90
:100380002F6ED1DF2D2AF5D7010E306EBDDF020EA4
:100390002F6EECDE000E016EC4EF03F0036A2E50E8
:1003A00059DE2D242F6E306EAFDF000E016E12006D
:1003B0000900F5520CE0F6CF2DF0F7CF2EF0F5CF77
:1003C0002FF0B1DF2DC0F6FF2EC0F7FFF1D71200DE
:1003D0002D6A2D50030834E32DB202D08A9E01D03D
:1003E0008A8E939E2DB002D08A9C01D08A8C939CD9
:1003F000938481B407D02D50040DF350030F016E88
:1004000021D01CD0938681B607D02D50040DF35017
:10041000020F016E17D012D0938881B807D02D50EB
:10042000040DF350010F016E0DD008D0938A81BAEC
:1004300005D02D50040DF3CF01F004D02D2AC9D7DB
:10044000FF0E016EDEEF02F0D8B203D0EA6A390E79
:10045000E96E006A016A026A036A396A3A6A3B6AAB
:100460003C6A38503710361035102CE0200E3D6EA7
:10047000D890313632363336343639363A363B3622
:100480003C3638503C5C08E137503B5C05E1365067
:100490003A5C02E13550395C0FE33550395E365035
:1004A000D8A0363C3A5E3750D8A0373C3B5E385037
:1004B000D8A0383C3C5ED880003601360236033680
:1004C0003D2ED6D739C0EFFF3AC0ECFF3BC0ECFF62
:1004D0003CC0ECFF1200B250B3CF03F00A26B35079
:1004E0000B22000E0C220D22B36A020EB26E000027
:1004F000A1A204D0010E0C26000E0D22A192D892CA
:100500000DC034F00CC033F00BC032F00AC031F033
:10051000386A376A020E366E710E356E95DF01C08D
:1005200002F000C001F01200B250B3CF03F00A266F
:10053000B3500B22000E0C220D22B36A020EB26ED3
:100540000000A1A204D0010E0C26000E0D22A192E3
:10055000D8920DC034F00CC033F00BC032F00AC09A
:1005600031F0386A376A020E366E710E356E6CDF06
:1005700001C030F000C02FF02E50305C0FE303E1DB
:100580002D502F5C0BE32D502F5C006E2E503058F9
:10059000036E00C001F0026E0FD00ED0FF0ED880A7
:1005A0002D54316EFF0E2E54326E2F503124016EB9
:1005B00030503220036E026E12000AD701C023F0C1
:1005C0002450FC0FD8B062D0040F4AEF03F0233C54
:1005D00001D007D080DF02C026F001C025F0010E57
:1005E000246E54D0233C02D0246A18D026C02EF0AA
:1005F00025C02DF099DF02C02EF001C02DF02E5243
:1006000003E12D501D080AE2020E246E64DF02C0D1
:1006100026F001C025F0000E016E3AD037D0233C01
:1006200002D0246A18D026C02EF025C02DF07CDF21
:1006300002C02EF001C02DF0025000080CE2FF0AAB
:1006400003E12D50F30807E246DF02C026F001C0A7
:1006500025F0030E246E1AD0233C02D0246A16D053
:1006600026C02EF025C02DF05FDF02C02EF001C0A5
:100670002DF02E5203E12D50630808E22CDF02C05A
:1006800026F001C025F0000E016E02D0020E016EB0
:100690005CEF03F0E824F76AF736AF0FF66E060E4C
:1006A000F7220A00F550FA6E0800F550F96ECE05F3
:1006B000E4051E06580681D7015217E123500A08A7
:1006C00005E1285202E1279001D027802350090834
:1006D0000CE323C028F00E0E2D6E010E2E6E5EDE92
:1006E000300E23242D6E2F6E1EDE1200059009DDC4
:1006F000000E016EE3EF03F0058003DD000E016ED6
:10070000F3EF03F0F86AD09EB886080EAF6E020EC3
:10071000B06EA60EAC6E900EAB6E2790286A296A5A
:100720002C6A2B6AC150C00B0F09C16E070EB46E44
:100730000AD0064004000E4012FF038000000003B0
:10074000002400000000000EF86E070EF76E320E57
:10075000F66E0900F550006E000A13E00900F5502E
:10076000016EE8BE05D03F0BEA6E0900F5CFE9FF48
:1007700001BC090001AC0900F5CFEEFF004EE9D73E
:10078000F9D7F86A7DD5DFD52D6A2E6A07DE680EA7
:10079000F66E000EF76E0CDE2D6A010E2E6EFEDD7B
:1007A0007A0EF66E000EF76E03DE0A0E2D6E010E47
:1007B0002E6EF4DD820EF66E000EF76EF9DD7BDF35
:1007C00027B00CD093D7070E2D6E010E2E6EE6DDEE
:1007D000880EF66E000EF76EEBDD1CD0296A2850ED
:1007E000295C17E289D7070E2D6E010E2E6ED6DD1D
:1007F0008C0EF66E000EF76EDBDD2A6A2A50630857
:1008000006E359DF0A0E2F6EB1DC2A2AF7D7292A10
:08081000E6D72790D4D70300BE
:020000040030CA
:0E00000027CC3E1E0087A1000FC00FE00F406E
:00000001FF
;PIC18F4550
;CRC=F3CF  CREATED="14-Mar-23 13:53"
