:1000000028EF02F0F76A140FF66E000EF7220900CF
:10001000F5501200070F1F1F1F1F1F1F1F1F1F005C
:10002000000000001C1E1F1F1F1F1F1F00000000DC
:10003000001F1F1F1F1F1F1F1F1F1E1C1F1F1F1FF3
:100040001F1F0F071F1F1F0000001F1F1F1F1F1F45
:100050001F1F1F1FF76A640FF66E000EF7220900BC
:10006000F550120080C094D44849454E2054484968
:10007000204249454E2047494159000030AE02D048
:10008000848401D084948490848030AC02D08484B1
:1000900001D084948490848030AA02D0848401D0DA
:1000A00084948490848030A802D0848401D0849485
:1000B0008490848030A602D0848401D0849484907B
:1000C000848030A402D0848401D08494849084807D
:1000D00030A202D0848401D084948490848030A0A3
:1000E00002D0848401D0849484908480120005C05E
:1000F00030F0C4DF04C030F0C1DF95968C86959651
:100100008C96000E016E46EF01F011C030F0B6DFA4
:1001100010C030F0B3DF0FC030F0B0DF0EC030F0F1
:10012000ADDF95988C8895988C98000E016E4BEFFA
:1001300001F012C030F0A2DF13C030F09FDF14C016
:1001400030F09CDF15C030F099DF959C8C8C959C2D
:100150008C9C000E016E4CEF01F0EA6A280EE96EED
:10016000EF500DE0060E016E006A002EFED7012E44
:10017000FBD77B0E006E002EFED7EF2EF3D71200BA
:10018000800E266E276A2750070821E326C030F02C
:1001900075DF036A2750160FE96E000E0320EA6E22
:1001A000EF50FF0A286E306E69DF959A8C8A959A17
:1001B0008C9A010E286ED1DF306A60DF959A8C8AA6
:1001C000959A8C9A2750272AD8902632DCD7000E91
:1001D000016E4DEF01F009C030F050DF08C030F083
:1001E0004DDF07C030F04ADF06C030F047DF95949E
:1001F0008C8495948C94000E016E12002A50076E28
:10020000071E2BC006F0061EE6DF000E016E120070
:100210002650096E091E27C008F0081EDCDF000EFC
:10022000016E53EF01F02F6A2DC030F027DF2CC094
:1002300030F024DF2F6A2BC030F020DF2AC030F0EE
:100240001DDF2F6A29C030F019DF28C030F016DF1B
:100250002F6A27C030F012DF26C030F00FDF959EE6
:100260008C8E959E8C9E000E016E5CEF01F0959039
:100270008C80FF0E926E3C0E936EF10E946E000E0B
:10028000966E956E956A8C6AF19E31D7116A106AE6
:100290000F6A0E6A3AD74DD773D72A682B68AEDF3C
:1002A00026682768B5D7276A266A296A286A2B6ACA
:1002B0002A6A2D6A2C6AB7D795908C90C050C00BD3
:1002C0000209C06EC08EC280C150C00B0C09C16E45
:1002D000B50EB16E000E016E53EF02F0030E2A5EF2
:1002E00009E3EA6A2A0EE96EEF5004E001D000D07B
:1002F000EF2EFDD71200010E2A6E29C02BF07EDFF3
:100300002A6A29C02BF07ADFC80E2A6EE7DF000EBA
:10031000016E1200050E2A6E28C02BF06FDF040E4E
:100320002A6E28C02BF06ADFC80E2A6ED7DF000EB7
:10033000016E12003C0E296EDEDF050E286E0DDF09
:100340003C0E296ED8DF050E286E07DF0C0E296ED5
:10035000D2DF060E296ECFDF400E296ECCDF266A73
:1003600026503F0808E3036A26504CDE276E286EAD
:10037000D1DF262AF5D7010E296EBDDF020E286EC9
:10038000ECDE000E016E54EF02F0036A275062DECD
:100390002624286E296EAFDF000E016E12000900C0
:1003A000F5520CE0F6CF26F0F7CF27F0F5CF28F086
:1003B000B1DF26C0F6FF27C0F7FFF1D75CEF02F0F0
:1003C0002950016A285C03E228C000F00CD0006AC2
:1003D000080E2A6E283600362950005CD8B0006E10
:1003E00001362A2EF7D71200015026C028F0640EDD
:1003F000296EE6DF00C026F00150300E07E127A28B
:100400000CD027B60AD027B8200E03D027962798FD
:100410002780012601C028F07DDF26C028F00A0EC3
:10042000296ECEDF00C026F00150300E06E127B65F
:1004300008D027A006D027B8200E012601C028F03A
:1004400069DF300E262626C028F064DF66EF02F052
:10045000F86AD09EB886080EAF6E020EB06EA60E79
:10046000AC6E900EAB6E256A246AC150C00B0F09AA
:10047000C16E070EB46E046A056A066A076A086AE6
:10048000096A12681368146815681668176818688E
:1004900019681A681B681C681D681E681F68206A36
:1004A000216A226AE4D646D7266A276A6EDF680E7A
:1004B000F66E000EF76E73D7090E266E030E276ECA
:1004C00064DF23C026F0010E276E8ED7232A23C0B7
:1004D00028F03C0E296E74DF00C023F0040E266E57
:0E04E000FA0E286E3ADE262EFBD7E6D7030072
:020000040030CA
:0E00000027CC3E1E0087A1000FC00FE00F406E
:00000001FF
;PIC18F4550
;CRC=C245  CREATED="28-Feb-23 14:51"
