:100000007BEF03F0F76A140FF66E000EF72209007B
:10001000F5501200C0F9A4B0999282F880908883BC
:10002000C6A1867F30AE02D0848401D084948490AF
:10003000848030AC02D0848401D084948490848005
:1000400030AA02D0848401D084948490848030A823
:1000500002D0848401D084948490848030A602D01D
:10006000848401D084948490848030A402D08484D9
:1000700001D084948490848030A202D0848401D002
:1000800084948490848030A002D0848401D08494AD
:1000900084908480120005C030F0C4DF04C030F0CA
:1000A000C1DF95968C8695968C96000E016E1AEFA0
:1000B00001F011C030F0B6DF10C030F0B3DF0FC078
:1000C00030F0B0DF0EC030F0ADDF95988C88959899
:1000D0008C98000E016E120012C030F0A3DF13C026
:1000E00030F0A0DF14C030F09DDF15C030F09ADF93
:1000F000959C8C8C959C8C9C000E016E1200EA6A7B
:10010000280EE96EEF500DE0060E016E006A002E1B
:10011000FED7012EFBD77B0E006E002EFED7EF2EF2
:10012000F3D7AFEF00F0800E266E276A275007083E
:1001300021E326C030F076DF036A2750160FE96E00
:10014000000E0320EA6EEF50FF0A286E306E6ADF61
:10015000959A8C8A959A8C9A010E286ED0D7306A1F
:1001600061DF959A8C8A959A8C9A2750272AD89085
:100170002632DCD7000E016E21EF01F009C030F00D
:1001800051DF08C030F04EDF07C030F04BDF06C053
:1001900030F048DF95948C8495948C94000E016E19
:1001A00012002650076E071E27C006F0061EE6DF67
:1001B000000E016E24EF01F02650096E091E27C0C3
:1001C00008F0081EDBDF000E016E27EF01F02F6A3A
:1001D0002DC030F027DF2CC030F024DF2F6A2BC079
:1001E00030F020DF2AC030F01DDF2F6A29C030F048
:1001F00019DF28C030F016DF2F6A27C030F012DF79
:1002000026C030F00FDF959E8C8E959E8C9E000E42
:10021000016E30EF01F095908C80FF0E926E3C0ED7
:10022000936EF10E946E000E966E956E956A8C6AC2
:10023000F19E31D7116A106A0F6A0E6A3ADF4CDFFD
:1002400072D726682768ADD726682768B5D7276A8A
:10025000266A296A286A2B6A2A6A2D6A2C6AB7D705
:1002600095908C90C050C00B0209C06EC08EC280A9
:10027000C150C00B0C09C16EB50EB16E000E016EFF
:10028000A6EF03F02850070B006E2830016E0132F4
:1002900001321F0E011601502A24E96E000E2B2098
:1002A000EA6E016A012A002A01D00136002EFDD72C
:1002B000295203E00150EF1203D0011E0150EF1646
:1002C00012002850070B006E2830016E01320132F7
:1002D0001F0E011601502924E96E000E2A20EA6E35
:1002E000EFCF01F0002A01D00132002EFDD7010E20
:1002F00001161200D8B203D0EA6A340EE96E006A21
:10030000016A026A036A346A356A366A376A3350A8
:100310003210311030102CE0200E386ED8902C3670
:100320002D362E362F363436353636363736335070
:10033000375C08E13250365C05E13150355C02E152
:100340003050345C0FE33050345E3150D8A0313C33
:10035000355E3250D8A0323C365E3350D8A0333CA4
:10036000375ED8800036013602360336382ED6D7AF
:1003700034C0EFFF35C0ECFF36C0ECFF37C0ECFFF8
:100380001200B250B3CF03F00A26B3500B22000E76
:100390000C220D22B36A020EB26E0000A1A204D09C
:1003A000010E0C26000E0D22A192D8920DC02FF046
:1003B0000CC02EF00BC02DF00AC02CF0336A326A4C
:1003C000020E316E710E306E95DF01C002F000C07A
:1003D00001F01200B250B3CF03F00A26B3500B2243
:1003E000000E0C220D22B36A020EB26E0000A1A212
:1003F00004D0010E0C26000E0D22A192D8920DC041
:100400002FF00CC02EF00BC02DF00AC02CF0336A78
:10041000326A020E316E710E306E6CDF01C02BF04D
:1004200000C02AF029502B5C0FE303E128502A5C1E
:100430000BE328502A5C006E29502B58036E00C035
:1004400001F0026E0FD00ED0FF0ED88028542C6E13
:10045000FF0E29542D6E2A502C24016E2B502D2076
:10046000036E026E120026C028F0010E296E0F0ED8
:100470002B6E920E2A6E06DF2250FC0FD8B0B7D03A
:10048000040FFAEF02F026C028F0010E296E0F0EBD
:100490002B6E920E2A6EF6DE26C028F00F0E2A6E04
:1004A000800E296E0EDF01B00BD027C01FF026C0D2
:1004B0001EF067DF02C021F001C020F0010E226EA5
:1004C00096D01EC028F0010E296E0F0E2B6E920ED4
:1004D0002A6ED8DE1EC028F00F0E2A6E800E296EFE
:1004E000F0DE01A002D0226A1ED01E50265C1BE165
:1004F0001F50275C18E121C029F020C028F06ADFD6
:1005000002C029F001C028F0295203E128501D083B
:100510000AE237DF02C021F001C020F0020E226E95
:10052000000E016E66D063D01EC028F0010E296E49
:100530000F0E2B6E920E2A6EA5DE1EC028F00F0E37
:100540002A6E800E296EBDDE01A002D0226A1ED066
:100550001E50265C1BE11F50275C18E121C029F0CA
:1005600020C028F037DF02C029F001C028F0025077
:1005700000080CE2FF0A03E12850F30807E201DF5C
:1005800002C021F001C020F0030E226E30D01EC048
:1005900028F0010E296E0F0E2B6E920E2A6E72DE5F
:1005A0001EC028F00F0E2A6E800E296E8ADE01A072
:1005B00002D0226A1CD01E50265C19E11F50275C15
:1005C00016E121C029F020C028F004DF02C029F084
:1005D00001C028F0295203E12850630808E2D1DE67
:1005E00002C021F001C020F0000E016E02D0020E08
:1005F000016E1200E824F76AF7360F0FF66E060E4A
:10060000F7220A00F550FA6E0800F550F96E8604DC
:10061000C20428058E057C0E276E0D0E266E23DF84
:10062000015203E1B80ED56E25807C0E276E0C0EAC
:10063000266E19DF015202E1D56A2590B5EF03F06D
:10064000016A026A006A036A2E5002E12D5018E026
:10065000100E2F6ED8902B362C36003603362E50C7
:10066000035C02E12D50005C07E32D50005ED8A032
:1006700003062E50035ED880013602362F2EEAD7AD
:100680001200286A036A2850120FE96E000E032038
:10069000EA6E27C02CF026C02BF02E6A0A0E2D6EB3
:1006A000CFDF00C02BF003C02CF003C003F00050DC
:1006B000A9DCEF6E27C02CF026C02BF02E6A0A0EA4
:1006C0002D6EBEDF02C027F001C026F0282A265278
:1006D000D9E12752D7E1285003080AE3036A2850DA
:1006E000120FE96E000E0320EA6EEF68282AF3D796
:1006F000F3DCCCEF03F0F86AD09EB886080EAF6E3C
:10070000020EB06EA60EAC6E900EAB6E236A246A1B
:10071000C150C00B0F09C16E070EB46E046A056AA2
:10072000066A076A086A096A126813681468156815
:1007300016681768186819681A681B681C681D68AD
:100740001E681F68206A216A226A65D5D56AD76A41
:10075000D66A00002590D650236E2350640804E228
:10076000D76A010ED66E000056D725B005D0116AA3
:10077000106A0F6A0E6A06D025A004D011681068AE
:100780000F680E6896DC2450235C06E023C024F03A
:0C079000276A23C026F075D7DED70300CF
:020000040030CA
:0E00000027CC3E1E0087A1000FC00FE00F406E
:00000001FF
;PIC18F4550
;CRC=2942  CREATED="14-Feb-23 14:59"
