:10000000BBEF03F0F76A180FF66E000EF722000E32
:10001000F86E0900F5501200C0F9A4B0999282F868
:1000200080908883C6A1867FF76A3C0FF66E000E2B
:10003000F722000EF86E0900F5501200070F1F1F7F
:100040001F1F1F1F1F1F1F00000000001C1E1F1F5F
:100050001F1F1F1F00000000001F1F1F1F1F1F1F4B
:100060001F1F1E1C1F1F1F1F1F1F0F071F1F1F00EB
:1000700000001F1F1F1F1F1F1F1F1F1FF76A900F4A
:10008000F66E000EF722000EF86E0900F550120011
:1000900080C094D4EA6A250EE96EEF500DE0060E9A
:1000A000016E006A002EFED7012EFBD77B0E006E7C
:1000B000002EFED7EF2EF3D712002380246A24509F
:1000C000090814E323B002D08C9001D08C80959065
:1000D0009582000E83B2010E266E000E23B0010E33
:1000E000265CD8A403D02370242AE9D72450090819
:1000F0000DE3956A8C68936A8A680A0E256ECADFDA
:10010000936A8A6A0A0E256EC5DFF3D7000E016E68
:1001100015EF01F066500BC066FF6430FEE36650D9
:100120000AC066FF6430FEE3665009C066FF6430B3
:10013000FEE3665008C066FF6430FEE3959A8C8A41
:10014000959A8C9A000E016E29EF01F0665010C04E
:1001500066FF6430FEE3665011C066FF6430FEE364
:10016000665012C066FF6430FEE3665013C066FF3F
:100170006430FEE366500CC066FF6430FEE36650F8
:100180000DC066FF6430FEE366500EC066FF64304B
:10019000FEE366500FC066FF6430FEE3959E8C8ED2
:1001A000959E8C9E080E256E75DF000E016E120066
:1001B000236A2350070829E3036A2350140FE96ECA
:1001C000000E0320EA6EEFCF8DFF966A800E246E3C
:1001D0002350016E04E0D8902432012EFCD76650E3
:1001E00024C066FF6430FEE3929A898A929A899AC3
:1001F000010E256E4FDF6650666A6430FEE3929A08
:10020000898A929A899A232AD4D7000E016E120005
:10021000979E8E9E000E016E2CEF01F0979C8E9C97
:10022000000E016E2DEF01F048D7DF0E926E040E26
:10023000956E000E966E976E986EFF0E946EF19E00
:10024000986A8F6A98908F800B6A0A6A096A086AAE
:1002500061D77CDFADDFDCD7E1D7BD0EB16E000E1C
:10026000016EE3EF03F027B002D08E9A01D08E8AA0
:10027000979A27B402D08E9001D08E809790966A7C
:1002800028C08DFF000E016E1200030E275E09E3E9
:10029000EA6A270EE96EEF5004E001D000D0EF2E9D
:1002A000FDD71200010E276E26C028F0DCDF276A7A
:1002B00026C028F0D8DFC80E276EE7DF000E016EDB
:1002C0001200050E276E25C028F0CDDF040E276E24
:1002D00025C028F0C8DFC80E276ED7DF000E016EDC
:1002E00012003C0E266EDEDF050E256ED3DE3C0EC0
:1002F000266ED8DF050E256ECDDE0C0E266ED2DF03
:10030000060E266ECFDF400E266ECCDF236A23500A
:100310003F0808E3036A235087DE246E256ED1DF91
:10032000232AF5D7010E266EBDDF020E256EB2DE42
:10033000000E016EE4EF03F02550070B006E253030
:10034000016E013201321F0E011601502724E96EA1
:10035000000E2820EA6E016A012A002A01D0013627
:10036000002EFDD7265203E00150EF1203D0011EEC
:100370000150EF1612002550070B006E2530016E5C
:10038000013201321F0E011601502624E96E000EC3
:100390002720EA6EEFCF01F0002A01D00132002EB3
:1003A000FDD7010E01161200D8B203D0EA6A310E51
:1003B000E96E006A016A026A036A316A326A336A64
:1003C000346A30502F102E102D102CE0200E356E78
:1003D000D89029362A362B362C36313632363336FB
:1003E00034363050345C08E12F50335C05E12E5038
:1003F000325C02E12D50315C0FE32D50315E2E5006
:10040000D8A02E3C325E2F50D8A02F3C335E305007
:10041000D8A0303C345ED880003601360236033630
:10042000352ED6D731C0EFFF32C0ECFF33C0ECFF22
:1004300034C0ECFF1200B250B3CF03F00426B35027
:100440000522000E06220722B36A020EB26E0000D9
:10045000A1A204D0010E0626000E0722A192D89276
:1004600007C02CF006C02BF005C02AF004C029F00C
:10047000306A2F6A020E2E6E710E2D6E95DF01C04E
:1004800002F000C001F01200B250B3CF03F0042616
:10049000B3500522000E06220722B36A020EB26E86
:1004A0000000A1A204D0010E0626000E0722A19290
:1004B000D89207C02CF006C02BF005C02AF004C06B
:1004C00029F0306A2F6A020E2E6E710E2D6E6CDFCF
:1004D00001C028F000C027F02650285C0FE303E19C
:1004E0002550275C0BE32550275C006E26502858CA
:1004F000036E00C001F0026E0FD00ED0FF0ED88048
:100500002554296EFF0E26542A6E27502924016E89
:1005100028502A20036E026E120023C025F0010E1F
:10052000266E0F0E286E920E276E06DF2050FC0FEF
:10053000D8B0B7D0040F54EF03F023C025F0010E5C
:10054000266E0F0E286E920E276EF6DE23C025F063
:100550000F0E276E800E266E0EDF01B00BD024C06A
:100560001DF023C01CF067DF02C01FF001C01EF0A9
:10057000010E206E96D01CC025F0010E266E0F0EC7
:10058000286E920E276ED8DE1CC025F00F0E276E47
:10059000800E266EF0DE01A002D0206A1ED01C5014
:1005A000235C1BE11D50245C18E11FC026F01EC017
:1005B00025F06ADF02C026F001C025F0265203E1D3
:1005C00025501D080AE237DF02C01FF001C01EF0EF
:1005D000020E206E000E016E66D063D01CC025F0A6
:1005E000010E266E0F0E286E920E276EA5DE1CC021
:1005F00025F00F0E276E800E266EBDDE01A002D004
:10060000206A1ED01C50235C1BE11D50245C18E1A5
:100610001FC026F01EC025F037DF02C026F001C043
:1006200025F0025000080CE2FF0A03E12550F30810
:1006300007E201DF02C01FF001C01EF0030E206EB2
:1006400030D01CC025F0010E266E0F0E286E920EC3
:10065000276E72DE1CC025F00F0E276E800E266EF0
:100660008ADE01A002D0206A1CD01C50235C19E154
:100670001D50245C16E11FC026F01EC025F004DFCB
:1006800002C026F001C025F0265203E12550630880
:1006900008E2D1DE02C01FF001C01EF0000E016EA4
:1006A00002D0020E016E1200E824F76AF736C90F75
:1006B000F66E060EF722000EF86EFB6E0A00F5507D
:1006C000FA6E0800F550F96E3A057605DC0542062B
:1006D0007C0E246E0E0E236E20DF015205E1010E0A
:1006E000226ED76AD66A00007C0E246E0C0E236E32
:1006F00014DF01520DE1222A2250630802E2010EAA
:10070000226E2150225C04E2D76A010ED66E0000F0
:100710007C0E246E0D0E236E00DF01520CE12206CA
:10072000225202E1630E226E2150225C04E2D76A5B
:10073000010ED66E0000F3EF03F0036A24509EDC36
:100740002324256E266EAEDD000E016E12002550AC
:10075000016A245C03E224C000F00CD0006A080E99
:10076000266E243600362550005CD8B0006E013667
:10077000262EF7D71200F86AD09E639A000E646E98
:10078000200E636E9598958A959C010E226EC1503D
:10079000C00B0F09C16E070EB46E0C680D680E68B1
:1007A0000F68106811681268136814681568166875
:1007B0001768186819681A681B681C681D681E6A23
:1007C0001F6A206A31D58DD5A80ED56ED76AD66A34
:1007D0000000D650216E2150225C04E2D76A010E3F
:1007E000D66E000075D7090E236E246AA6DF22C0DC
:1007F00024F00A0E256EABDF01C024F00A0E256E30
:10080000A6DF300E0024236E256E5BDD22C024F0AF
:100810000A0E256E9CDF300E0024236E256E51DDFE
:10082000090E236E010E246E88DF21C024F00A0E0B
:10083000256E8DDF01C024F00A0E256E88DF300E94
:100840000024236E256E3DDD21C024F00A0E256EA6
:100850007EDF300E0024236E256E33DD21C024F0B0
:100860000A0E256E74DF036A005002EC00F00C6E75
:1008700021C024F00A0E256E6ADF01C024F00A0EA2
:10088000256E65DF036A005002EC00F00D6E22C099
:1008900024F00A0E256E5BDF036A005002EC00F0C4
:1008A0000E6E22C024F00A0E256E51DF01C024F026
:1008B0000A0E256E4CDF036A005002EC00F00F6E4A
:1008C00045DC21C024F00A0E256E41DF036A00508A
:1008D00002EC00F0146E21C024F00A0E256E37DF02
:1008E00001C024F00A0E256E32DF036A005002ECCC
:1008F00000F0156E22C024F00A0E256E28DF036A70
:10090000005002EC00F01A6E22C024F00A0E256E90
:100910001EDF01C024F00A0E256E19DF036A0050A5
:0C09200002EC00F01B6E44DC54D7030016
:020000040030CA
:0E00000000C21E1EF385B100FFC0FFE0FF40EE
:00000001FF
;PIC18F6722
;CRC=5C91  CREATED="14-Mar-23 06:57"
