:10000000E5EF03F0F76A140FF66E000EF722090011
:10001000F5501200C0F9A4B0999282F880908883BC
:10002000C6A1867F31AE02D0848401D084948490AE
:10003000848031AC02D0848401D084948490848004
:1000400031AA02D0848401D084948490848031A821
:1000500002D0848401D084948490848031A602D01C
:10006000848401D084948490848031A402D08484D8
:1000700001D084948490848031A202D0848401D001
:1000800084948490848031A002D0848401D08494AC
:1000900084908480120005C031F0C4DF04C031F0C8
:1000A000C1DF95968C8695968C96000E016E19EFA1
:1000B00001F011C031F0B6DF10C031F0B3DF0FC076
:1000C00031F0B0DF0EC031F0ADDF95988C88959897
:1000D0008C98000E016E120012C031F0A3DF13C025
:1000E00031F0A0DF14C031F09DDF15C031F09ADF90
:1000F000959C8C8C959C8C9C000E016E1200EA6A7B
:10010000290EE96EEF500DE0060E016E006A002E1A
:10011000FED7012EFBD77B0E006E002EFED7EF2EF2
:10012000F3D71200800E276E286A2850070821E3B3
:1001300027C031F077DF036A2850160FE96E000EF2
:100140000320EA6EEF50FF0A296E316E6BDF959A3D
:100150008C8A959A8C9A010E296ED1DF316A62DF02
:10016000959A8C8A959A8C9A2850282AD89027326A
:10017000DCD7000E016E20EF01F009C031F052DF34
:1001800008C031F04FDF07C031F04CDF06C031F05E
:1001900049DF95948C8495948C94000E016E120026
:1001A0002750076E071E28C006F0061EE6DF000E69
:1001B000016E23EF01F02750096E091E28C008F0D8
:1001C000081EDBDF000E016E26EF01F0306A2EC044
:1001D00031F028DF2DC031F025DF306A2CC031F03E
:1001E00021DF2BC031F01EDF306A2AC031F01ADF68
:1001F00029C031F017DF306A28C031F013DF27C083
:1002000031F010DF959E8C8E959E8C9E000E016EB7
:100210002FEF01F095908C80FF0E926E3C0E936E46
:10022000F10E946E000E966E956E956A8C6AF19E34
:1002300032D7116A106A0F6A0E6A3BDF4DDF72D740
:1002400027682868ADD727682868B5D7286A276A3D
:100250002A6A296A2C6A2B6A2E6A2D6AB7D795906A
:100260008C90C050C00B0209C06EC08EC280C150BD
:10027000C00B0C09C16EB50EB16E000E016E12EF0F
:1002800004F0016A026A006A036A2F5002E12E50EC
:1002900018E0100E306ED8902C362D36003603360E
:1002A0002F50035C02E12E50005C07E32E50005EED
:1002B000D8A003062F50035ED88001360236302EB8
:1002C000EAD71200296A036A2950120FE96E000E5C
:1002D0000320EA6E28C02DF027C02CF02F6A0A0EEA
:1002E0002E6ECFDF00C02CF003C02DF003C003F052
:1002F000005088DEEF6E28C02DF027C02CF02F6A4A
:100300000A0E2E6EBEDF02C028F001C027F0292A97
:100310002752D9E12852D7E1295003080AE3036A9A
:100320002950120FE96E000E0320EA6EEF68292AA9
:10033000F3D7D2DE27EF04F02950070B006E2930E7
:10034000016E013201321F0E011601502B24E96E9D
:10035000000E2C20EA6E016A012A002A01D0013623
:10036000002EFDD72A5203E00150EF1203D0011EE8
:100370000150EF1612002950070B006E2930016E54
:10038000013201321F0E011601502A24E96E000EBF
:100390002B20EA6EEFCF01F0002A01D00132002EAF
:1003A000FDD7010E01161200D8B203D0EA6A350E4D
:1003B000E96E006A016A026A036A356A366A376A58
:1003C000386A34503310321031102CE0200E396E60
:1003D000D8902D362E362F363036353636363736DF
:1003E00038363450385C08E13350375C05E1325020
:1003F000365C02E13150355C0FE33150355E3250EE
:10040000D8A0323C365E3350D8A0333C375E3450EF
:10041000D8A0343C385ED880003601360236033628
:10042000392ED6D735C0EFFF36C0ECFF37C0ECFF12
:1004300038C0ECFF1200B250B3CF03F00A26B3501D
:100440000B22000E0C220D22B36A020EB26E0000C7
:10045000A1A204D0010E0C26000E0D22A192D8926A
:100460000DC030F00CC02FF00BC02EF00AC02DF0E4
:10047000346A336A020E326E710E316E95DF01C03E
:1004800002F000C001F01200B250B3CF03F00A2610
:10049000B3500B22000E0C220D22B36A020EB26E74
:1004A0000000A1A204D0010E0C26000E0D22A19284
:1004B000D8920DC030F00CC02FF00BC02EF00AC047
:1004C0002DF0346A336A020E326E710E316E6CDFBB
:1004D00001C02CF000C02BF02A502C5C0FE303E18C
:1004E00029502B5C0BE329502B5C006E2A502C58B2
:1004F000036E00C001F0026E0FD00ED0FF0ED88048
:1005000029542D6EFF0E2A542E6E2B502D24016E71
:100510002C502E20036E026E120027C029F0010E0F
:100520002A6E0F0E2C6E920E2B6E06DF2250FC0FE1
:10053000D8B0B7D0040F54EF03F027C029F0010E54
:100540002A6E0F0E2C6E920E2B6EF6DE27C029F04F
:100550000F0E2B6E800E2A6E0EDF01B00BD028C05E
:100560001FF027C01EF067DF02C021F001C020F09D
:10057000010E226E96D01EC029F0010E2A6E0F0EBB
:100580002C6E920E2B6ED8DE1EC029F00F0E2B6E35
:10059000800E2A6EF0DE01A002D0226A1ED01E500C
:1005A000275C1BE11F50285C18E121C02AF020C005
:1005B00029F06ADF02C02AF001C029F02A5203E1C3
:1005C00029501D080AE237DF02C021F001C020F0E7
:1005D000020E226E000E016E66D063D01EC029F09E
:1005E000010E2A6E0F0E2C6E920E2B6EA5DE1EC013
:1005F00029F00F0E2B6E800E2A6EBDDE01A002D0F8
:10060000226A1ED01E50275C1BE11F50285C18E197
:1006100021C02AF020C029F037DF02C02AF001C033
:1006200029F0025000080CE2FF0A03E12950F30808
:1006300007E201DF02C021F001C020F0030E226EAC
:1006400030D01EC029F0010E2A6E0F0E2C6E920EB5
:100650002B6E72DE1EC029F00F0E2B6E800E2A6EDE
:100660008ADE01A002D0226A1CD01E50275C19E14C
:100670001F50285C16E121C02AF020C029F004DFB9
:1006800002C02AF001C029F02A5203E12950630870
:1006900008E2D1DE02C021F001C020F0000E016EA0
:1006A00002D0020E016E1200E824F76AF736C30F7B
:1006B000F66E060EF7220A00F550FA6E0800F550A5
:1006C000F96E3A057605DC0542062550200820E340
:1006D00003680268016800682550276E07E0D8901B
:1006E0000036013602360336272EF9D700500E6E3B
:1006F0000E1E01500F6E0F1E0250106E101E035082
:10070000116E111ED6DC320E296EF9DC252A01D0BD
:10071000256A4CEF04F02550200820E303680268A6
:10072000016800682550276E07E0D8900332023236
:1007300001320032272EF9D700500E6E0E1E0150E6
:100740000F6E0F1E0250106E101E0350116E111E00
:10075000B0DC320E296ED3DC252A01D0256A4CEF9D
:1007600004F02550200814E3116810680F680E6823
:100770002550276E07E0D8900E360F36103611360A
:10078000272EF9D796DC320E296EB9DC252A01D046
:10079000256A4CEF04F02550200814E31168106816
:1007A0000F680E682550276E07E0D890113210327E
:1007B0000F320E32272EF9D77CDC320E296E9FDCE9
:1007C000252A01D0256A4CEF04F0F86AD09EB8863D
:1007D000080EAF6E020EB06EA60EAC6E900EAB6E33
:1007E000236A246A256A266AC150C00B0F09C16EAC
:1007F000070EB46E046A056A066A076A086A096A1F
:1008000012681368146815681668176818681968FC
:100810001A681B681C681D681E681F68206A216AA8
:10082000226AF8D4B80ED56ED76AD66A0000D650C0
:10083000236E2350640802E2010E236E2450235CD1
:1008400006E023C024F0286A23C027F03BD57C0EA5
:10085000286E0D0E276E61DE015205E1265002085A
:1008600002E3262A256A7C0E286E0C0E276E55DEC2
:10087000015204E1265202E02606256A265202E1D0
:1008800024D70AD0262C02D046D706D026500208FC
:0C08900002E167D701D07FD7CAD7030070
:020000040030CA
:0E00000027CC3E1E0087A1000FC00FE00F406E
:00000001FF
;PIC18F4550
;CRC=8662  CREATED="14-Feb-23 15:22"
