:040000006CEF02F0AF
:08000800046ED8CF05F0E0CF33
:1000100006F00001E9CF0CF0EACF07F0E1CF08F0DD
:10002000E2CF09F0D9CF0AF0DACF0BF0F3CF12F01C
:10003000F4CF13F0FACF14F0F5CF15F0F6CF16F099
:10004000F7CF17F000C00EF001C00FF002C010F0A3
:1000500003C011F09DA030EF00F09EB089EF00F0DA
:100060000EC000F00FC001F010C002F011C003F08C
:100070000CC0E9FF07C0EAFF078E08C0E1FF09C016
:10008000E2FF0AC0D9FF0BC0DAFF12C0F3FF13C0B2
:10009000F4FF14C0FAFF15C0F5FF16C0F6FF17C035
:1000A000F7FF045006C0E0FF05C0D8FF1000F76A54
:1000B000BE0FF66E000EF7220900F5501200070F72
:1000C0001F1F1F1F1F1F1F1F1F00000000001C1EDF
:1000D0001F1F1F1F1F1F00000000001F1F1F1F1FCB
:1000E0001F1F1F1F1E1C1F1F1F1F1F1F0F071F1F4C
:1000F0001F0000001F1F1F1F1F1F1F1F1F1FF76A4A
:100100000E0FF66E010EF7220900F550120080C0A6
:1001100094D40B0ECF6EDC0ECE6E0000382A9E906B
:1001200030EF00F044AE02D0848401D084948490F7
:10013000848044AC02D0848401D0849484908480F0
:1001400044AA02D0848401D084948490848044A8FA
:1001500002D0848401D084948490848044A602D008
:10016000848401D084948490848044A402D08484C4
:1001700001D084948490848044A202D0848401D0ED
:1001800084948490848044A002D0848401D0849498
:100190008490848012001AC044F0C4DF19C044F077
:1001A000C1DF95968C8695968C96000E016E9AEF1F
:1001B00001F026C044F0B6DF25C044F0B3DF24C010
:1001C00044F0B0DF23C044F0ADDF95988C8895985B
:1001D0008C98000E016E9FEF01F027C044F0A2DF63
:1001E00028C044F09FDF29C044F09CDF2AC044F0BF
:1001F00099DF959C8C8C959C8C9C000E016EA0EFD9
:1002000001F0EA6A3C0EE96EEF500DE0060E016E59
:10021000006A002EFED7012EFBD77B0E006E002E4B
:10022000FED7EF2EF3D71200800E3A6E3B6A3B509A
:10023000070821E33AC044F075DF036A3B502B0FF7
:10024000E96E000E0320EA6EEF50FF0A3C6E446E2A
:1002500069DF959A8C8A959A8C9A010E3C6ED1DF53
:10026000446A60DF959A8C8A959A8C9A3B503B2A17
:10027000D8903A32DCD7000E016EA1EF01F01EC01B
:1002800044F050DF1DC044F04DDF1CC044F04ADF95
:100290001BC044F047DF95948C8495948C94000E99
:1002A000016E12003E501C6E1C1E3FC01BF01B1E38
:1002B000E6DF000E016E12003A501E6E1E1E3BC09D
:1002C0001DF01D1EDCDF000E016EA7EF01F0436A7A
:1002D00041C044F027DF40C044F024DF436A3FC000
:1002E00044F020DF3EC044F01DDF436A3DC044F0CF
:1002F00019DF3CC044F016DF436A3BC044F012DF14
:100300003AC044F00FDF959E8C8E959E8C9E000E19
:10031000016EB0EF01F095908C80FF0E926E3C0E56
:10032000936EF10E946E000E966E956E956A8C6AC1
:10033000F19E31D7266A256A246A236A3AD74DD7B7
:1003400073D73E683F68AEDF3A683B68B5D73B6A13
:100350003A6A3D6A3C6A3F6A3E6A416A406AB7D778
:1003600095908C90C050C00B0209C06EC08EC280A8
:10037000C150C00B0C09C16EB50EB16E000E016EFE
:1003800098EF02F0030E3E5E09E3EA6A3E0EE96E64
:10039000EF5004E001D000D0EF2EFDD71200010E87
:1003A0003E6E3DC03FF07EDF3E6A3DC03FF07ADFEB
:1003B000C80E3E6EE7DF000E016E1200050E3E6EA7
:1003C0003CC03FF06FDF040E3E6E3CC03FF06ADF82
:1003D000C80E3E6ED7DF000E016E12003C0E3D6E61
:1003E000DEDF050E3C6E0DDF3C0E3D6ED8DF050EE8
:1003F0003C6E07DF0C0E3D6ED2DF060E3D6ECFDF8A
:10040000400E3D6ECCDF3A6A3A503F0808E3036A7B
:100410003A504DDE3B6E3C6ED1DF3A2AF5D7010EE5
:100420003D6EBDDF020E3C6EECDE000E016E99EFFC
:1004300002F03D50016A3C5C03E23CC000F00CD08D
:10044000006A080E3E6E3C3600363D50005CD8B067
:10045000006E01363E2EF7D71200036A3B504FDE86
:100460003A243C6E3D6E9BDF000E016EB4EF02F04D
:1004700001503AC03CF0640E3D6EDBDF00C03AF044
:100480000150300E07E13BA20CD03BB60AD03BB87E
:10049000200E03D03B963B983B80012601C03CF0E8
:1004A0008DDF3AC03CF00A0E3D6EC3DF00C03AF06B
:1004B0000150300E06E13BB608D03BA006D03BB859
:1004C000200E012601C03CF079DF300E3A263AC0FA
:1004D0003CF074DFB9EF02F0F86AD09E078EB88660
:1004E000080EAF6E020EB06EA60EAC6E900EAB6E26
:1004F000386A396AC150C00B0F09C16E070EB46E5D
:10050000196A1A6A1B6A1C6A1D6A1E6A27682868AB
:1005100029682A682B682C682D682E682F68306837
:100520003168326833683468356A366A376AF3D6B8
:1005300055D7B50ECD6E0B0ECF6EDC0ECE6E000015
:100540009D80C00EF212385009080AE20A0E385E89
:10055000392A39C03CF03C0E3D6E6BDF00C039F0EB
:10056000090E3A6E3B6A79D739C03AF0010E3B6EFC
:060570007FD7E9D703006C
:020000040030CA
:0E00000027CC3E1E0087A1000FC00FE00F406E
:00000001FF
;PIC18F4550
;CRC=4A0E  CREATED="07-Mar-23 13:17"
