:10000000B6EF02F031AE08EF00F0848409EF00F0A3
:1000100084948490848031AC11EF00F0848412EFDA
:1000200000F084948490848031AA1AEF00F08484D4
:100030001BEF00F084948490848031A823EF00F0BB
:10004000848424EF00F084948490848031A62CEF83
:1000500000F084842DEF00F084948490848031A497
:1000600035EF00F0848436EF00F08494849084802F
:1000700031A23EEF00F084843FEF00F0849484903E
:10008000848031A047EF00F0848448EF00F084942E
:1000900084908480120005C031F0B4DF04C031F0D8
:1000A000B1DF95968C8695968C96000E016E1BEFAF
:1000B00001F011C031F0A6DF10C031F0A3DF0FC096
:1000C00031F0A0DF0EC031F09DDF95988C889598B7
:1000D0008C98000E016E120012C031F093DF13C035
:1000E00031F090DF14C031F08DDF15C031F08ADFC0
:1000F000959C8C8C959C8C9C000E016E21EF01F0E0
:10010000EA6A290EE96EEF500DE0060E016E006AF4
:10011000002EFED7012EFBD77B0E006E002EFED7E1
:10012000EF2EF3D7B0EF00F0800E276E286A28502C
:10013000070821E327C031F065DF036A2850160F56
:10014000E96E000E0320EA6EEF50FF0A296E316E51
:1001500059DF959A8C8A959A8C9A010E296ED0D780
:10016000316A50DF959A8C8A959A8C9A2850282A61
:10017000D8902732DCD7000E016E22EF01F009C0C3
:1001800031F040DF08C031F03DDF07C031F03ADF29
:1001900006C031F037DF95948C8495948C94000ED2
:1001A000016E12002750076E071E28C006F0061EBB
:1001B000E6DF000E016E25EF01F02750096E091EE3
:1001C00028C008F0081EDBDF000E016E28EF01F0EA
:1001D000306A2EC031F016DF2DC031F013DF306AE7
:1001E0002CC031F00FDF2BC031F00CDF306A2AC099
:1001F00031F008DF29C031F005DF306A28C031F066
:1002000001DF27C031F0FEDE959E8C8E959E8C9E80
:10021000000E016E31EF01F095908C80FF0E926E12
:100220003C0E936EF10E946E000E966E956E956A6E
:100230008C6AF19E30D7116A106A0F6A0E6A39DF34
:100240004BD772D727682868ADD727682868B5D7F5
:10025000286A276A2A6A296A2C6A2B6A2E6A2D6AFA
:10026000B7D795908C90C050C00B0209C06EC08E5D
:10027000C280C150C00B0C09C16EB50EB16E000E2C
:10028000016EF2EF02F0276A2750030834E327B229
:1002900002D08A9E01D08A8E939E27B002D08A9C7B
:1002A00001D08A8C939C938481B407D02750040D8D
:1002B000F350030F016E21D01CD0938681B607D076
:1002C0002750040DF350020F016E17D012D09388FF
:1002D00081B807D02750040DF350010F016E0DD0E7
:1002E00008D0938A81BA05D02750040DF3CF01F0CE
:1002F00004D0272AC9D7FF0E016E39EF02F0D8B219
:1003000003D0EA6A330EE96E006A016A026A036A80
:10031000336A346A356A366A3250311030102F1021
:100320002CE0200E376ED8902B362C362D362E36FC
:1003300033363436353636363250365C08E1315095
:10034000355C05E13050345C02E12F50335C0FE343
:100350002F50335E3050D8A0303C345E3150D8A09E
:10036000313C355E3250D8A0323C365ED880003603
:10037000013602360336372ED6D733C0EFFF34C0EE
:10038000ECFF35C0ECFF36C0ECFF1200B250B3CF2B
:1003900003F00A26B3500B22000E0C220D22B36A82
:1003A000020EB26E0000A1A204D0010E0C26000EB7
:1003B0000D22A192D8920DC02EF00CC02DF00BC0D2
:1003C0002CF00AC02BF0326A316A020E306E710EC8
:1003D0002F6E95DF01C002F000C001F01200B25094
:1003E000B3CF03F00A26B3500B22000E0C220D22CD
:1003F000B36A020EB26E0000A1A204D0010E0C2658
:10040000000E0D22A192D8920DC02EF00CC02DF03E
:100410000BC02CF00AC02BF0326A316A020E306E2B
:10042000710E2F6E6CDF01C02AF000C029F0285039
:100430002A5C0FE303E12750295C0BE32750295C7A
:10044000006E28502A58036E00C001F0026E0FD0D3
:100450000ED0FF0ED88027542B6EFF0E28542C6E22
:1004600029502B24016E2A502C20036E026E12009C
:100470000AD701C023F02450FC0FD8B062D0040F7B
:10048000A5EF02F0233C01D007D080DF02C026F0A8
:1004900001C025F0010E246E54D0233C02D0246A02
:1004A00018D026C028F025C027F099DF02C028F018
:1004B00001C027F0285203E127501D080AE2020E6E
:1004C000246E64DF02C026F001C025F0000E016E2C
:1004D0003AD037D0233C02D0246A18D026C028F066
:1004E00025C027F07CDF02C028F001C027F00250B1
:1004F00000080CE2FF0A03E12750F30807E246DF99
:1005000002C026F001C025F0030E246E1AD0233C51
:1005100002D0246A16D026C028F025C027F05FDF5D
:1005200002C028F001C027F0285203E127506308D9
:1005300008E22CDF02C026F001C025F0000E016E9B
:1005400002D0020E016EF3EF02F0E824F76AF736EC
:10055000650FF66E050EF7220A00F550FA6E0800D8
:10056000F550F96E84049A04D4040E05F86AD09EFE
:10057000B886080EAF6E020EB06EA60EAC6E900E70
:10058000AB6EC150C00B0F09C16E070EB46E0AD01E
:10059000064004000E4012FF038000000003002408
:1005A00000000000000EF86E050EF76E900EF66E5D
:1005B0000900F550006E000A13E00900F550016EC5
:1005C000E8BE05D03F0BEA6E0900F5CFE9FF01BC9C
:1005D000090001AC0900F5CFEEFF004EE9D7F9D7CD
:1005E000F86A1AD645D7015206E1116A106A0F6AF5
:0A05F00023C00EF05EDDF6D7030015
:020000040030CA
:0E00000027CC3E1E0087A1000FC00FE00F406E
:00000001FF
;PIC18F4550
;CRC=6C57  CREATED="28-Feb-23 14:23"
