:100000000EEF03F0F76A180FF66E000EF722000EDF
:10001000F86E0900F5501200C0F9A4B0999282F868
:1000200080908883C6A1867FEA6A240EE96EEF502D
:100030000DE0060E016E006A002EFED7012EFBD7E2
:100040007B0E006E002EFED7EF2EF3D7120022801B
:10005000236A2350090814E322B002D08C9001D007
:100060008C8095909582000E83B2010E256E000E55
:1000700022B0010E255CD8A403D02270232AE9D730
:10008000235009080DE3956A8C68936A8A680A0E02
:10009000246ECADF936A8A6A0A0E246EC5DFF3D71C
:1000A000000E016EE0EF00F066500BC066FF64309A
:1000B000FEE366500AC066FF6430FEE3665009C086
:1000C00066FF6430FEE3665008C066FF6430FEE3FE
:1000D000959A8C8A959A8C9A000E016EF4EF00F036
:1000E000665010C066FF6430FEE3665011C066FFC4
:1000F0006430FEE3665012C066FF6430FEE3665073
:1001000013C066FF6430FEE366500CC066FF6430C7
:10011000FEE366500DC066FF6430FEE366500EC01D
:1001200066FF6430FEE366500FC066FF6430FEE396
:10013000959E8C8E959E8C9E080E246E75DF000E0B
:10014000016EF5EF00F0226A2250070829E3036AE6
:100150002250140FE96E000E0320EA6EEFCF8DFFE0
:10016000966A800E236E2250016E04E0D8902332EE
:10017000012EFCD7665023C066FF6430FEE3929ADE
:10018000898A929A899A010E246E4EDF6650666AB9
:100190006430FEE3929A898A929A899A222AD4D765
:1001A000000E016E1200979E8E9E000E016EF7EFFC
:1001B00000F0979C8E9C000E016EF8EF00F047D780
:1001C000DF0E926E040E956E000E966E976E986E10
:1001D000FF0E946EF19E986A8F6A98908F800B6ADA
:1001E0000A6A096A086A60D77BD7ADDFDCD7E1D736
:1001F000BD0EB16E000E016E35EF03F02450070BFB
:10020000006E2430016E013201321F0E01160150C2
:100210002624E96E000E2720EA6E016A012A002AD0
:1002200001D00136002EFDD7255203E00150EF1218
:1002300003D0011E0150EF1612002450070B006E70
:100240002430016E013201321F0E011601502524A7
:10025000E96E000E2620EA6EEFCF01F0002A01D0F1
:100260000132002EFDD7010E01161200D8B203D0C4
:10027000EA6A300EE96E006A016A026A036A306A4D
:10028000316A326A336A2F502E102D102C102CE058
:10029000200E346ED890283629362A362B36303642
:1002A0003136323633362F50335C08E12E50325C13
:1002B00005E12D50315C02E12C50305C0FE32C50F5
:1002C000305E2D50D8A02D3C315E2E50D8A02E3C53
:1002D000325E2F50D8A02F3C335ED88000360136D6
:1002E00002360336342ED6D730C0EFFF31C0ECFFD4
:1002F00032C0ECFF33C0ECFF1200B250B3CF03F0BA
:100300000426B3500522000E06220722B36A020E0D
:10031000B26E0000A1A204D0010E0626000E072234
:10032000A192D89207C02BF006C02AF005C029F090
:1003300004C028F02F6A2E6A020E2D6E710E2C6EEC
:1003400095DF01C002F000C001F01200B250B3CF3F
:1003500003F00426B3500522000E06220722B36ADA
:10036000020EB26E0000A1A204D0010E0626000EFD
:100370000722A192D89207C02BF006C02AF005C030
:1003800029F004C028F02F6A2E6A020E2D6E710E1D
:100390002C6E6CDF01C027F000C026F02550275CD2
:1003A0000FE303E12450265C0BE32450265C006E2F
:1003B00025502758036E00C001F0026E0FD00ED0FA
:1003C000FF0ED8802454286EFF0E2554296E265027
:1003D0002824016E27502920036E026E120022C0CD
:1003E00024F0010E256E0F0E276E920E266E06DF8C
:1003F0002050FC0FD8B0B7D0040FB6EF02F022C0E7
:1004000024F0010E256E0F0E276E920E266EF6DE7C
:1004100022C024F00F0E266E800E256E0EDF01B076
:100420000BD023C01DF022C01CF067DF02C01FF0FC
:1004300001C01EF0010E206E96D01CC024F0010EEB
:10044000256E0F0E276E920E266ED8DE1CC024F08D
:100450000F0E266E800E256EF0DE01A002D0206AFF
:100460001ED01C50225C1BE11D50235C18E11FC0F4
:1004700025F01EC024F06ADF02C025F001C024F080
:10048000255203E124501D080AE237DF02C01FF0A5
:1004900001C01EF0020E206E000E016E66D063D009
:1004A0001CC024F0010E256E0F0E276E920E266ED4
:1004B000A5DE1CC024F00F0E266E800E256EBDDE5C
:1004C00001A002D0206A1ED01C50225C1BE11D50EE
:1004D000235C18E11FC025F01EC024F037DF02C0E6
:1004E00025F001C024F0025000080CE2FF0A03E1ED
:1004F0002450F30807E201DF02C01FF001C01EF024
:10050000030E206E30D01CC024F0010E256E0F0E9D
:10051000276E920E266E72DE1CC024F00F0E266E21
:10052000800E256E8ADE01A002D0206A1CD01C50ED
:10053000225C19E11D50235C16E11FC025F01EC08E
:1005400024F004DF02C025F001C024F0255203E1AD
:100550002450630808E2D1DE02C01FF001C01EF083
:10056000000E016E02D0020E016E1200E824F76A3E
:10057000F7368D0FF66E050EF722000EF86EFB6E45
:100580000A00F550FA6E0800F550F96EFE033A04C1
:10059000A00406057C0E236E0C0E226E20DF015295
:1005A00003E1A80ED56E14D07C0E236E0D0E226EC4
:1005B00016DF015202E1D56A0BD07C0E236E0E0EBF
:1005C000226E0DDF015204E1216AD76AD66A00006B
:1005D0003BEF03F023502418800B266E23AE02D08D
:1005E000231E232A24AE02D0241E242A2450016A6A
:1005F000235C03E223C000F00CD0006A080E256ED5
:10060000233600362450005CD8B0006E0136252E0B
:10061000F7D726AE02D0011E012A1200F86AD09E3A
:10062000639A000E646E200E636E9598958A959C71
:10063000216AC150C00B0F09C16E070EB46E0C6861
:100640000D680E680F6810681168126813681468E6
:10065000156816681768186819681A681B681C6896
:100660001D681E6A1F6A206AAAD5A80ED56ED76AB1
:10067000D66A00008FD7D650216E21BE07D02150F8
:10068000630804E2D76A010ED66E000021C023F091
:100690000A0E246E9FDF036A005000BE0306B2DC20
:1006A000146E21C023F00A0E246E94DF01C023F0E3
:1006B0000A0E246E8FDF036A005000BE0306A2DC20
:0806C000156E41DDD7D70300E0
:020000040030CA
:0E00000000C21E1EF385B100FFC0FFE0FF40EE
:00000001FF
;PIC18F6722
;CRC=1F05  CREATED="27-Feb-23 08:24"
