:10000000DBEF02F0F76A180FF66E000EF722000E13
:10001000F86E0900F5501200C0F9A4B0999282F868
:1000200080908883C6A1867FEA6A2F0EE96EEF5022
:100030000DE0060E016E006A002EFED7012EFBD7E2
:100040007B0E006E002EFED7EF2EF3D712002D8010
:100050002E6A2E50090814E32DB002D08C9001D0E6
:100060008C8095909582000E83B2010E306E000E4A
:100070002DB0010E305CD8A403D02D702E2AE9D704
:100080002E5009080DE3956A8C68936A8A680A0EF7
:100090002F6ECADF936A8A6A0A0E2F6EC5DFF3D706
:1000A000000E016EE0EF00F066500BC066FF64309A
:1000B000FEE366500AC066FF6430FEE3665009C086
:1000C00066FF6430FEE3665008C066FF6430FEE3FE
:1000D000959A8C8A959A8C9A000E016EF4EF00F036
:1000E000665010C066FF6430FEE3665011C066FFC4
:1000F0006430FEE3665012C066FF6430FEE3665073
:1001000013C066FF6430FEE366500CC066FF6430C7
:10011000FEE366500DC066FF6430FEE366500EC01D
:1001200066FF6430FEE366500FC066FF6430FEE396
:10013000959E8C8E959E8C9E080E2F6E75DF000E00
:10014000016EF5EF00F02D6A2D50070829E3036AD0
:100150002D50140FE96E000E0320EA6EEFCF8DFFD5
:10016000966A800E2E6E2D50016E04E0D8902E32CD
:10017000012EFCD766502EC066FF6430FEE3929AD3
:10018000898A929A899A010E2F6E4EDF6650666AAE
:100190006430FEE3929A898A929A899A2D2AD4D75A
:1001A000000E016E1200979E8E9E000E016EF7EFFC
:1001B00000F0979C8E9C000E016EF8EF00F047D780
:1001C000DF0E926E040E956E000E966E976E986E10
:1001D000FF0E946EF19E986A8F6A98908F800B6ADA
:1001E0000A6A096A086A60D77BD7ADDFDCD7E1D736
:1001F000BD0EB16E000E016E16EF03F02F50070B0F
:10020000006E2F30016E013201321F0E01160150B7
:100210003124E96E000E3220EA6E016A012A002ABA
:1002200001D00136002EFDD7305203E00150EF120D
:1002300003D0011E0150EF1612002F50070B006E65
:100240002F30016E013201321F0E01160150302491
:10025000E96E000E3120EA6EEFCF01F0002A01D0E6
:100260000132002EFDD7010E01161200D8B203D0C4
:10027000EA6A3B0EE96E006A016A026A036A3B6A37
:100280003C6A3D6A3E6A3A503910381037102CE00B
:10029000200E3F6ED89033363436353636363B3600
:1002A0003C363D363E363A503E5C08E139503D5CC6
:1002B00005E138503C5C02E137503B5C0FE33750BE
:1002C0003B5E3850D8A0383C3C5E3950D8A0393C11
:1002D0003D5E3A50D8A03A3C3E5ED88000360136AA
:1002E000023603363F2ED6D73BC0EFFF3CC0ECFFB3
:1002F0003DC0ECFF3EC0ECFF1200B250B3CF03F0A4
:100300000426B3500522000E06220722B36A020E0D
:10031000B26E0000A1A204D0010E0626000E072234
:10032000A192D89207C036F006C035F005C034F06F
:1003300004C033F03A6A396A020E386E710E376EB5
:1003400095DF01C002F000C001F01200B250B3CF3F
:1003500003F00426B3500522000E06220722B36ADA
:10036000020EB26E0000A1A204D0010E0626000EFD
:100370000722A192D89207C036F006C035F005C01A
:1003800034F004C033F03A6A396A020E386E710EE6
:10039000376E6CDF01C032F000C031F03050325C9B
:1003A0000FE303E12F50315C0BE32F50315C006E03
:1003B00030503258036E00C001F0026E0FD00ED0E4
:1003C000FF0ED8802F54336EFF0E3054346E3150F0
:1003D0003324016E32503420036E026E12002DC0A1
:1003E0002FF0010E306E0F0E326E920E316E06DF60
:1003F0002050FC0FD8B0B7D0040FB6EF02F02DC0DC
:100400002FF0010E306E0F0E326E920E316EF6DE50
:100410002DC02FF00F0E316E800E306E0EDF01B04A
:100420000BD02EC01DF02DC01CF067DF02C01FF0E6
:1004300001C01EF0010E206E96D01CC02FF0010EE0
:10044000306E0F0E326E920E316ED8DE1CC02FF061
:100450000F0E316E800E306EF0DE01A002D0206AE9
:100460001ED01C502D5C1BE11D502E5C18E11FC0DE
:1004700030F01EC02FF06ADF02C030F001C02FF054
:10048000305203E12F501D080AE237DF02C01FF08F
:1004900001C01EF0020E206E000E016E66D063D009
:1004A0001CC02FF0010E306E0F0E326E920E316EA8
:1004B000A5DE1CC02FF00F0E316E800E306EBDDE3B
:1004C00001A002D0206A1ED01C502D5C1BE11D50E3
:1004D0002E5C18E11FC030F01EC02FF037DF02C0C5
:1004E00030F001C02FF0025000080CE2FF0A03E1D7
:1004F0002F50F30807E201DF02C01FF001C01EF019
:10050000030E206E30D01CC02FF0010E306E0F0E87
:10051000326E920E316E72DE1CC02FF00F0E316EF5
:10052000800E306E8ADE01A002D0206A1CD01C50E2
:100530002D5C19E11D502E5C16E11FC030F01EC06D
:100540002FF004DF02C030F001C02FF0305203E181
:100550002F50630808E2D1DE02C01FF001C01EF078
:10056000000E016E02D0020E016E1200E824F76A3E
:10057000F7368D0FF66E050EF722000EF86EFB6E45
:100580000A00F550FA6E0800F550F96EFE033A04C1
:10059000A00406057C0E2E6E0C0E2D6E20DF01527F
:1005A00001E129807C0E2E6E0D0E2D6E18DF01529A
:1005B00001E129901200F86AD09E639A000E646EE1
:1005C000200E636E9598958A959C2990C150C00B1A
:1005D0000F09C16E070EB46E09D012400CFF0B80DC
:1005E000000000020001040201050700000EF86E81
:1005F000050EF76EDA0EF66E0900F550006E000A71
:1006000013E00900F550016EE8BE05D03F0BEA6E1D
:100610000900F5CFE9FF01BC090001AC0900F5CFE5
:10062000EEFF004EE9D7F9D7F86AC9D52990070E31
:100630002A6EB0DF29A05AD015C014F016C015F0EC
:1006400017C016F018C017F019C018F01AC019F02A
:100650001BC01AF02ABE1AD0036A2A50006EE8BEE8
:100660000306210FE96E000E0320EA6E036AEF50C5
:10067000C9DC1B6E2A062B6A2BBE03D02B506308E5
:1006800004E361DD87DF2B2AF7D72FD02AAE2DD0E8
:10069000A40E1B6EC00E1A6EF90E196E990E186E0E
:1006A000A40E176EF90E166E920E156EF80E146EDD
:1006B0002B6A2BBE03D02B50630804E344DD6ADFB2
:1006C0002B2AF7D71B681A68196818681768166804
:1006D000156814682B6A2BBE03D02B50630804E303
:1006E00032DD58DF2B2AF7D72A6817D029B015D06A
:1006F0002C6A2CBE03D02C5007080DE3036A2C5043
:10070000E8BE0306140FE96E000E0320EA6EEF68E0
:0E0710001ADD2C2AEED7070E2A6E8BD70300B7
:020000040030CA
:0E00000000C21E1EF385B100FFC0FFE0FF40EE
:00000001FF
;PIC18F6722
;CRC=9ADE  CREATED="26-Feb-23 19:58"
