:1000000042EF01F032AE08EF00F0848409EF00F017
:1000100084948490848032AC11EF00F0848412EFD9
:1000200000F084948490848032AA1AEF00F08484D3
:100030001BEF00F084948490848032A823EF00F0BA
:10004000848424EF00F084948490848032A62CEF82
:1000500000F084842DEF00F084948490848032A496
:1000600035EF00F0848436EF00F08494849084802F
:1000700032A23EEF00F084843FEF00F0849484903D
:10008000848032A047EF00F0848448EF00F084942D
:1000900084908480120005C032F0B4DF04C032F0D6
:1000A000B1DF95968C8695968C96000E016E1AEFB0
:1000B00001F011C032F0A6DF10C032F0A3DF0FC094
:1000C00032F0A0DF0EC032F09DDF95988C889598B5
:1000D0008C98000E016E120012C032F093DF13C034
:1000E00032F090DF14C032F08DDF15C032F08ADFBD
:1000F000959C8C8C959C8C9C000E016E20EF01F0E1
:10010000EA6A2A0EE96EEF500DE0060E016E006AF3
:10011000002EFED7012EFBD77B0E006E002EFED7E1
:10012000EF2EF3D71200800E286E296A2950070897
:1001300021E328C032F066DF036A2950160FE96E0A
:10014000000E0320EA6EEF50FF0A2A6E326E5ADF6D
:10015000959A8C8A959A8C9A010E2A6ED1DF326A12
:1001600051DF959A8C8A959A8C9A2950292AD89091
:100170002832DCD7000E016E21EF01F009C032F009
:1001800041DF08C032F03EDF07C032F03BDF06C07F
:1001900032F038DF95948C8495948C94000E016E27
:1001A00012002850076E071E29C006F0061EE6DF63
:1001B000000E016E24EF01F02850096E091E29C0BF
:1001C00008F0081EDBDF000E016E27EF01F0316A38
:1001D0002FC032F017DF2EC032F014DF316A2DC08D
:1001E00032F010DF2CC032F00DDF316A2BC032F05C
:1001F00009DF2AC032F006DF316A29C032F002DF9F
:1002000028C032F0FFDE959E8C8E959E8C9E000E4F
:10021000016E30EF01F095908C80FF0E926E3C0ED7
:10022000936EF10E946E000E966E956E956A8C6AC2
:10023000F19E31D7116A106A0F6A0E6A3ADF4CD705
:1002400072D728682968ADD728682968B5D7296A80
:10025000286A2B6A2A6A2D6A2C6A2F6A2E6AB7D7F7
:1002600095908C90C050C00B0209C06EC08EC280A9
:10027000C150C00B0C09C16EB50EB16E000E016EFF
:100280006BEF01F0F86AD09EB886080EAF6E020ED2
:10029000B06EA60EAC6E900EAB6EC150C00B0F09C7
:1002A000C16E070EB46E046A056A066A076A086AB8
:1002B000096A126813681468156816681768186860
:1002C00019681A681B681C681D681E681F68206A08
:1002D000216A226AA0D7256A246A236A23500F085C
:1002E00021E3D8902530296E2430246E29508009CE
:1002F000256E25C011F024C010F0010E0E6E0F6A9D
:100300002350006E05E0D8900E360F36002EFBD736
:10031000D0DE020E286E960E2A6EF2DE282EFBD755
:10032000232ADCD7256A246A236A23500F0823E393
:10033000D8902434286E2534296E28500109246E63
:1003400029C025F025C011F024C010F0800E0F6EDA
:100350000E6A2350006E05E0D8900F320E32002E48
:10036000FBD7A7DE020E286E960E2A6EC9DE282E57
:0A037000FBD7232ADAD7AFD703002A
:020000040030CA
:0E00000027CC3E1E0087A1000FC00FE00F406E
:00000001FF
;PIC18F4550
;CRC=F006  CREATED="28-Feb-23 14:03"
