:100000007BEF02F0F76A140FF66E000EF72209007C
:10001000F55012000001020720070720070503041E
:10002000010220200720200720030703010102030B
:1000300003070720200503030001022003042020FA
:1000400002050304072007050307202007202007D7
:10005000070101070303202007050304000102072D
:1000600003030720070503040101072020042000E3
:1000700020200720000102050304002002050304DC
:10008000000102050307202007050304202020208B
:100090002020202020202020F76AA80FF66E000ED6
:1000A000F7220900F5501200070F1F1F1F1F1F1F07
:1000B0001F1F1F00000000001C1E1F1F1F1F1F1FEF
:1000C00000000000001F1F1F1F1F1F1F1F1F1E1CDF
:1000D0001F1F1F1F1F1F0F071F1F1F0000001F1FB5
:1000E0001F1F1F1F1F1F1F1FF76AF80FF66E000E3E
:1000F000F7220900F550120080C094D42DAE02D032
:10010000848401D08494849084802DAC02D0848433
:1001100001D08494849084802DAA02D0848401D05C
:100120008494849084802DA802D0848401D0849407
:10013000849084802DA602D0848401D084948490FD
:1001400084802DA402D0848401D0849484908480FF
:100150002DA202D0848401D08494849084802DA028
:1001600002D0848401D0849484908480120005C0DD
:100170002DF0C4DF04C02DF0C1DF95968C869596D6
:100180008C96000E016E86EF01F011C02DF0B6DFE7
:1001900010C02DF0B3DF0FC02DF0B0DF0EC02DF07A
:1001A000ADDF95988C8895988C98000E016E8BEF3A
:1001B00001F012C02DF0A2DF13C02DF09FDF14C09C
:1001C0002DF09CDF15C02DF099DF959C8C8C959CB3
:1001D0008C9C000E016E8CEF01F0EA6A250EE96E30
:1001E000EF500DE0060E016E006A002EFED7012EC4
:1001F000FBD77B0E006E002EFED7EF2EF3D712003A
:10020000800E236E246A2450070821E323C02DF0BA
:1002100075DF036A2450160FE96E000E0320EA6EA4
:10022000EF50FF0A256E2D6E69DF959A8C8A959A9C
:100230008C9A010E256ED1DF2D6A60DF959A8C8A2B
:10024000959A8C9A2450242AD8902332DCD7000E19
:10025000016E8DEF01F009C02DF050DF08C02DF0C8
:100260004DDF07C02DF04ADF06C02DF047DF959423
:100270008C8495948C94000E016E12002B50076EA6
:10028000071E2CC006F0061EE6DF000E016E1200EF
:100290002350096E091E24C008F0081EDCDF000E82
:1002A000016E93EF01F02C6A2AC02DF027DF29C0E0
:1002B0002DF024DF2C6A28C02DF020DF27C02DF080
:1002C0001DDF2C6A26C02DF019DF25C02DF016DFAA
:1002D0002C6A24C02DF012DF23C02DF00FDF959E75
:1002E0008C8E959E8C9E000E016E9CEF01F0959079
:1002F0008C80FF0E926E3C0E936EF10E946E000E8B
:10030000966E956E956A8C6AF19E31D7116A106A65
:100310000F6A0E6A3AD74DD773D72B682C68AEDFB9
:1003200023682468B5D7246A236A266A256A286A5E
:10033000276A2A6A296AB7D795908C90C050C00B5B
:100340000209C06EC08EC280C150C00B0C09C16EC4
:10035000B50EB16E000E016EA4EF02F0030E2B5E1F
:1003600009E3EA6A2B0EE96EEF5004E001D000D0F9
:10037000EF2EFDD71200010E2B6E2AC02CF07EDF6F
:100380002B6A2AC02CF07ADFC80E2B6EE7DF000E36
:10039000016E1200050E2B6E27C02CF06FDF040ECD
:1003A0002B6E27C02CF06ADFC80E2B6ED7DF000E35
:1003B000016E12003C0E2A6EDEDF050E256E0DDF8B
:1003C0003C0E2A6ED8DF050E256E07DF0C0E2A6E56
:1003D000D2DF060E2A6ECFDF400E2A6ECCDF236AF4
:1003E00023503F0808E3036A235056DE246E276E2D
:1003F000D1DF232AF5D7010E2A6EBDDF020E256E4E
:10040000ECDE000E016EA5EF02F02750016A265CBB
:1004100003E226C000F00CD0006A080E286E2636D3
:1004200000362750005CD8B0006E0136282EF7D772
:100430001200036A285058DE2724296E2A6E9BDF9B
:10044000000E016E61EF02F0006A016A2650D8903A
:1004500027B000260032013227B2002600320132D6
:1004600027B400260032013227B6002600320132BE
:1004700027B800260032013227BA002600320132A6
:1004800027BC00260032013227BE0026003201328E
:1004900066EF02F0256A25500B082AE325C026F0F6
:1004A000030E276EB2DF00520CE125C026F0030ECA
:1004B000276EABDF01C026F024C027F001C028F072
:1004C000B8D723C026F00C0E276EBED70150276A7E
:1004D000266EE8BE2706036A25502624016E2750A3
:1004E000032201508FDD266E276E54DF252AD3D7D5
:1004F000000E016E1200F86AD09EB886080EAF6E2C
:10050000020EB06EA60EAC6E900EAB6EC150C00B5C
:100510000F09C16E070EB46E046A056A066A076A9F
:10052000086A096A126813681468156816681768FB
:10053000186819681A681B681C681D681E681F689F
:10054000206A216A226AD3D635D7236A246AA2DFB9
:10055000010E236E040E246E9DDF020E236E080E24
:10056000246E98DF030E236E0C0E246E93DF040EB0
:0C057000236E100E246E8EDFFFD70300F8
:020000040030CA
:0E00000027CC3E1E0087A1000FC00FE00F406E
:00000001FF
;PIC18F4550
;CRC=3D6C  CREATED="14-Mar-23 16:16"
