:100000000DEF03F02DAE08EF00F0848409EF00F04F
:100010008494849084802DAC11EF00F0848412EFDE
:1000200000F08494849084802DAA1AEF00F08484D8
:100030001BEF00F08494849084802DA823EF00F0BF
:10004000848424EF00F08494849084802DA62CEF87
:1000500000F084842DEF00F08494849084802DA49B
:1000600035EF00F0848436EF00F08494849084802F
:100070002DA23EEF00F084843FEF00F08494849042
:1000800084802DA047EF00F0848448EF00F0849432
:1000900084908480120005C02DF0B4DF04C02DF0E0
:1000A000B1DF95968C8695968C96000E016E1BEFAF
:1000B00001F011C02DF0A6DF10C02DF0A3DF0FC09E
:1000C0002DF0A0DF0EC02DF09DDF95988C889598BF
:1000D0008C98000E016E120012C02DF093DF13C039
:1000E0002DF090DF14C02DF08DDF15C02DF08ADFCC
:1000F000959C8C8C959C8C9C000E016E21EF01F0E0
:10010000EA6A250EE96EEF500DE0060E016E006AF8
:10011000002EFED7012EFBD77B0E006E002EFED7E1
:10012000EF2EF3D7B0EF00F0800E236E246A245038
:10013000070821E323C02DF065DF036A2450160F62
:10014000E96E000E0320EA6EEF50FF0A256E2D6E59
:1001500059DF959A8C8A959A8C9A010E256ED0D784
:100160002D6A50DF959A8C8A959A8C9A2450242A6D
:10017000D8902332DCD7000E016E22EF01F009C0C7
:100180002DF040DF08C02DF03DDF07C02DF03ADF35
:1001900006C02DF037DF95948C8495948C94000ED6
:1001A000016E12002350076E071E24C006F0061EC3
:1001B000E6DF000E016E25EF01F02350096E091EE7
:1001C00024C008F0081EDBDF000E016E28EF01F0EE
:1001D0002C6A2AC02DF016DF29C02DF013DF2C6AFF
:1001E00028C02DF00FDF27C02DF00CDF2C6A26C0B1
:1001F0002DF008DF25C02DF005DF2C6A24C02DF07E
:1002000001DF23C02DF0FEDE959E8C8E959E8C9E88
:10021000000E016E31EF01F095908C80FF0E926E12
:100220003C0E936EF10E946E000E966E956E956A6E
:100230008C6AF19E30D7116A106A0F6A0E6A39DF34
:100240004BD772D723682468ADD723682468B5D705
:10025000246A236A266A256A286A276A2A6A296A1A
:10026000B7D795908C90C050C00B0209C06EC08E5D
:10027000C280C150C00B0C09C16EB50EB16E000E2C
:10028000016E36EF03F02550070B006E2530016E2E
:10029000013201321F0E011601502724E96E000EB3
:1002A0002820EA6E016A012A002A01D00136002EB8
:1002B000FDD7265203E00150EF1203D0011E01507A
:1002C000EF1612002550070B006E2530016E01322B
:1002D00001321F0E011601502624E96E000E272060
:1002E000EA6EEFCF01F0002A01D00132002EFDD7D7
:1002F000010E01161200D8B203D0EA6A310EE96E7F
:10030000006A016A026A036A316A326A336A346ACD
:1003100030502F102E102D102CE0200E356ED8905E
:1003200029362A362B362C363136323633363436A9
:100330003050345C08E12F50335C05E12E50325CC4
:1003400002E12D50315C0FE32D50315E2E50D8A0CC
:100350002E3C325E2F50D8A02F3C335E3050D8A0B8
:10036000303C345ED8800036013602360336352EF6
:10037000D6D731C0EFFF32C0ECFF33C0ECFF34C042
:10038000ECFF1200B250B3CF03F00A26B3500B2299
:10039000000E0C220D22B36A020EB26E0000A1A262
:1003A00004D0010E0C26000E0D22A192D8920DC091
:1003B0002CF00CC02BF00BC02AF00AC029F0306AD8
:1003C0002F6A020E2E6E710E2D6E95DF01C002F0A7
:1003D00000C001F01200B250B3CF03F00A26B350B0
:1003E0000B22000E0C220D22B36A020EB26E000028
:1003F000A1A204D0010E0C26000E0D22A192D892CB
:100400000DC02CF00CC02BF00BC02AF00AC029F054
:10041000306A2F6A020E2E6E710E2D6E6CDF01C0D7
:1004200028F000C027F02650285C0FE303E1255098
:10043000275C0BE32550275C006E26502858036E7E
:1004400000C001F0026E0FD00ED0FF0ED8802554F0
:10045000296EFF0E26542A6E27502924016E28503B
:100460002A20036E026E120023C025F0010E266EB4
:100470000F0E286E920E276E06DF2250FC0FD8B0AA
:10048000B7D0040FFCEF02F023C025F0010E266E5A
:100490000F0E286E920E276EF6DE23C025F00F0E8B
:1004A000276E800E266E0EDF01B00BD024C01FF029
:1004B00023C01EF067DF02C021F001C020F0010E52
:1004C000226E96D01EC025F0010E266E0F0E286EED
:1004D000920E276ED8DE1EC025F00F0E276E800EFE
:1004E000266EF0DE01A002D0226A1ED01E50235CD0
:1004F0001BE11F50245C18E121C026F020C025F02C
:100500006ADF02C026F001C025F0265203E1255023
:100510001D080AE237DF02C021F001C020F0020E00
:10052000226E000E016E66D063D01EC025F0010E53
:10053000266E0F0E286E920E276EA5DE1EC025F0C9
:100540000F0E276E800E266EBDDE01A002D0226A3D
:100550001ED01E50235C1BE11F50245C18E121C0FB
:1005600026F020C025F037DF02C026F001C025F0BC
:10057000025000080CE2FF0A03E12550F30807E2ED
:1005800001DF02C021F001C020F0030E226E30D046
:100590001EC025F0010E266E0F0E286E920E276EDD
:1005A00072DE1EC025F00F0E276E800E266E8ADECC
:1005B00001A002D0226A1CD01E50235C19E11F50FA
:1005C000245C16E121C026F020C025F004DF02C023
:1005D00026F001C025F0265203E12550630808E209
:1005E000D1DE02C021F001C020F0000E016E02D069
:1005F000020E016E47EF03F0E824F76AF736130F97
:10060000F66E060EF7220A00F550FA6E0800F55055
:10061000F96E8804C4042A059005F86AD09EB8864D
:10062000080EAF6E020EB06EA60EAC6E900EAB6EE4
:10063000C150C00B0F09C16E070EB46E046A056A83
:10064000066A076A086A096A1268136814681568F6
:1006500016681768186819681A681B681C681D688E
:100660001E681F68206A216A226AD6D50E6A938A9C
:1006700081BA03D00F0E0E6E0FD0938881B802D0CE
:100680000E6A0AD07C0E246E0B0E236EEDD601523C
:0E06900003E10E5201E00E1E0CDDE9D703005F
:020000040030CA
:0E00000027CC3E1E0087A1000FC00FE00F406E
:00000001FF
;PIC18F4550
;CRC=038A  CREATED="28-Feb-23 14:16"
