:10000000EEEF00F0EA6A390EE96EEF50D8B416EF61
:1000100000F0060E016E006A002EFED7012EFBD7FF
:100020007B0E006E002EFED7EF2EF3D71200378026
:10003000386A3850090814E337B002D08C9001D0E8
:100040008C8095909582000E83B2010E3A6E000E60
:1000500037B0010E3A5CD8A403D03770382AE9D7FC
:10006000385009080DE3956A8C68936A8A680A0E0D
:10007000396EC8DF936A8A6A0A0E396EC3DFF3D716
:10008000000E016ED0EF00F066500BC066FF6430CA
:10009000FEE366500AC066FF6430FEE3665009C0A6
:1000A00066FF6430FEE3665008C066FF6430FEE31E
:1000B000959A8C8A959A8C9A000E016EE4EF00F066
:1000C000665010C066FF6430FEE3665011C066FFE4
:1000D0006430FEE3665012C066FF6430FEE3665093
:1000E00013C066FF6430FEE366500CC066FF6430E8
:1000F000FEE366500DC066FF6430FEE366500EC03E
:1001000066FF6430FEE366500FC066FF6430FEE3B6
:10011000959E8C8E959E8C9E080E396E73DF000E18
:10012000016EE5EF00F0376A3750070829E3036AEC
:100130003750140FE96E000E0320EA6EEFCF8DFFEB
:10014000966A800E386E3750016E04E0D8903832CF
:10015000012EFCD7665038C066FF6430FEE3929AE9
:10016000898A929A899A010E396E4CDF6650666AC6
:100170006430FEE3929A898A929A899A372AD4D770
:10018000000E016E1200979E8E9E000E016EE7EF2C
:1001900000F0979C8E9C000E016EE8EF00F047D7B0
:1001A000DF0E926E040E956E000E966E976E986E30
:1001B000FF0E946EF19E986A8F6A98908F800B6AFA
:1001C0000A6A096A086A60D77BD7ADDFDCD7E1D756
:1001D000BD0EB16E000E016E2EEF01F0F86AD09EDA
:1001E000639A000E646E200E636E9598958A959CB6
:1001F000C150C00B0F09C16E070EB46E0FD0124074
:100200000CFF17800000008986C7C740FFC689C061
:10021000FFF9FFC799FFC6888E86FF00000EF86EB3
:10022000010EF76EFE0EF66E0900F550006E000A24
:1002300013E00900F550016EE8BE05D03F0BEA6EF1
:100240000900F5CFE9FF01BC090001AC0900F5CFB9
:10025000EEFF004EE9D7F9D7F86AA1D7356A1AC080
:100260001BF019C01AF018C019F017C018F016C00A
:1002700017F015C016F014C015F03550130812E32E
:10028000036A3550210FE96E000E0320EA6EEFCFAE
:1002900014F0366A3650630803E345DF362AFAD78E
:0A02A000352A01D0356ADBD70300D0
:020000040030CA
:0E00000000C21E1EF385B100FFC0FFE0FF40EE
:00000001FF
;PIC18F6722
;CRC=620C  CREATED="26-Feb-23 21:13"
