:10000000F7EF01F0F76A140FF66E000EF722090001
:10001000F5501200070F1F1F1F1F1F1F1F1F1F005C
:10002000000000001C1E1F1F1F1F1F1F00000000DC
:10003000001F1F1F1F1F1F1F1F1F1E1C1F1F1F1FF3
:100040001F1F0F071F1F1F0000001F1F1F1F1F1F45
:100050001F1F1F1FF76A640FF66E000EF7220900BC
:10006000F55012000000000C1F1F1F1F0E1C100671
:100070001F1F1F1F0F070300000000001E1C180099
:1000800000000000F76A940FF66E000EF7220900D8
:10009000F550120080C094D4424945552054554F24
:1000A0004E47204150504C45000031AE02D0848470
:1000B00001D084948490848031AC02D0848401D0B7
:1000C00084948490848031AA02D0848401D0849462
:1000D0008490848031A802D0848401D08494849058
:1000E000848031A602D0848401D08494849084805A
:1000F00031A402D0848401D084948490848031A27D
:1001000002D0848401D084948490848031A002D071
:10011000848401D0849484908480120005C031F0DE
:10012000C4DF04C031F0C1DF95968C8695968C961D
:10013000000E016E5DEF01F011C031F0B6DF10C0AE
:1001400031F0B3DF0FC031F0B0DF0EC031F0ADDF02
:1001500095988C8895988C98000E016E62EF01F04E
:1001600012C031F0A2DF13C031F09FDF14C031F0B4
:100170009CDF15C031F099DF959C8C8C959C8C9CF4
:10018000000E016E63EF01F0EA6A290EE96EEF508E
:100190000DE0060E016E006A002EFED7012EFBD781
:1001A0007B0E006E002EFED7EF2EF3D71200800ECE
:1001B000276E286A2850070821E327C031F075DF31
:1001C000036A2850160FE96E000E0320EA6EEF5006
:1001D000FF0A296E316E69DF959A8C8A959A8C9AFE
:1001E000010E296ED1DF316A60DF959A8C8A959A6B
:1001F0008C9A2850282AD8902732DCD7000E016E1E
:1002000064EF01F009C031F050DF08C031F04DDF7C
:1002100007C031F04ADF06C031F047DF95948C8487
:1002200095948C94000E016E12002C50076E071EE0
:100230002DC006F0061EE6DF000E016E12002750EC
:10024000096E091E28C008F0081EDCDF000E016ED2
:100250006AEF01F0306A2EC031F027DF2DC031F097
:1002600024DF306A2CC031F020DF2BC031F01DDFDD
:10027000306A2AC031F019DF29C031F016DF306A48
:1002800028C031F012DF27C031F00FDF959E8C8E31
:10029000959E8C9E000E016E73EF01F095908C8000
:1002A000FF0E926E3C0E936EF10E946E000E966EE3
:1002B000956E956A8C6AF19E31D7116A106A0F6A41
:1002C0000E6A3AD74DD773D72C682D68AEDF2768F2
:1002D0002868B5D7286A276A2A6A296A2C6A2B6A8D
:1002E0002E6A2D6AB7D795908C90C050C00B02092A
:1002F000C06EC08EC280C150C00B0C09C16EB50E5D
:10030000B16E000E016E22EF02F0030E2C5E09E3C7
:10031000EA6A2C0EE96EEF5004E001D000D0EF2E17
:10032000FDD71200010E2C6E2BC02DF07EDF2C6A43
:100330002BC02DF07ADFC80E2C6EE7DF000E016EA9
:100340001200050E2C6E29C02DF06FDF040E2C6EEE
:1003500029C02DF06ADFC80E2C6ED7DF000E016EAB
:1003600012003C0E2B6EDEDF050E296E0DDF3C0EFB
:100370002B6ED8DF050E296E07DF0C0E2B6ED2DF39
:10038000060E2B6ECFDF400E2B6ECCDF276A275078
:100390003F0808E3036A275035DE286E296ED1DF57
:1003A000272AF5D7010E2B6EBDDF020E296EECDE7B
:1003B000000E016E23EF02F0036A295063DE282449
:1003C0002A6E2B6EAFDF000E016E12000900F5528F
:1003D0000CE0F6CF27F0F7CF28F0F5CF29F0B1DF0A
:1003E00027C0F6FF28C0F7FFF1D73AEF02F0F86A0E
:1003F000D09EB886080EAF6E020EB06EA60EAC6E22
:10040000900EAB6E266A256AC150C00B0F09C16EF3
:10041000070EB46E046A056A066A076A086A096A02
:1004200012681368146815681668176818681968E0
:100430001A681B681C681D681E681F68206A216A8C
:10044000226A2CD78ED7400E2B6E6CDF236A235086
:100450001F0808E3036A2350FDDD276E296E71DF54
:10046000232AF5D7286A296AA7DF980EF66E000EB0
:10047000F76EACD7246A245012082AE324C028F06F
:10048000010E296E99DF200E296E5BDF296A59DF84
:10049000010E296E56DF200E296E53DF24C028F08E
:1004A000020E296E89DF200E296E4BDF020E296EA7
:1004B00048DF030E296E45DF200E296E42DF020E53
:1004C000276EFA0E296E60DE272EFBD7242AD3D79B
:1004D000246A245013082AE3130ED8802454276E6C
:1004E000286E010E296E68DF296A2BDF010E296E46
:1004F00028DF200E296E25DF130ED8802454276EA6
:10050000286E020E296E58DF020E296E1ADF030EC6
:10051000296E17DF200E296E14DF020E276EFA0EE9
:10052000296E32DE272EFBD7242AD3D7A3D7030088
:020000040030CA
:0E00000027CC3E1E0087A1000FC00FE00F406E
:00000001FF
;PIC18F4550
;CRC=6DC6  CREATED="14-Mar-23 16:06"
