:1000000009EF04F0F76A140FF66E000EF7220900EC
:10001000F5501200070F1F1F1F1F1F1F1F1F1F005C
:10002000000000001C1E1F1F1F1F1F1F00000000DC
:10003000001F1F1F1F1F1F1F1F1F1E1C1F1F1F1FF3
:100040001F1F0F071F1F1F0000001F1F1F1F1F1F45
:100050001F1F1F1FF76A640FF66E000EF7220900BC
:10006000F550120080C094D484AF02D0848401D0B3
:1000700084948490848084AD02D0848401D084945C
:100080008490848084AB02D0848401D08494849052
:10009000848084A902D0848401D084948490848054
:1000A00084A702D0848401D084948490848084A521
:1000B00002D0848401D084948490848084A302D06C
:1000C000848401D084948490848084A102D0848428
:1000D00001D0849484908480120005C084F0C4DF31
:1000E00004C084F0C1DF95968C8695968C96000EA0
:1000F000016E3CEF01F011C084F0B6DF10C084F057
:10010000B3DF0FC084F0B0DF0EC084F0ADDF959890
:100110008C8895988C98000E016E41EF01F012C00A
:1001200084F0A2DF13C084F09FDF14C084F09CDF52
:1001300015C084F099DF959C8C8C959C8C9C000E4E
:10014000016E42EF01F0EA6A7C0EE96EEF500DE0BD
:10015000060E016E006A002EFED7012EFBD77B0E25
:10016000006E002EFED7EF2EF3D71200800E7A6FAE
:100170007B6B7B51070821E37AC084F075DF036A4B
:100180007B51160FE96E000E0320EA6EEF50FF0A56
:100190007C6F846F69DF959A8C8A959A8C9A010E90
:1001A0007C6FD1DF846B60DF959A8C8A959A8C9AEC
:1001B0007B517B2BD8907A33DCD7000E016E43EF56
:1001C00001F009C084F050DF08C084F04DDF07C0A3
:1001D00084F04ADF06C084F047DF95948C849594C0
:1001E0008C94000E016E12007E51076E071E7FC0B8
:1001F00006F0061EE6DF000E016E12007A51096E4F
:10020000091E7BC008F0081EDCDF000E016E49EFFE
:1002100001F0836B81C084F027DF80C084F024DF8D
:10022000836B7FC084F020DF7EC084F01DDF836B92
:100230007DC084F019DF7CC084F016DF836B7BC047
:1002400084F012DF7AC084F00FDF959E8C8E959E2D
:100250008C9E000E016E52EF01F095908C80FF0E87
:10026000926E3C0E936EF10E946E000E966E956E2D
:10027000956A8C6AF19E31D7116A106A0F6A0E6A0C
:100280003AD74DD773D77E697F69AEDF7A697B69CC
:10029000B5D77B6B7A6B7D6B7C6B7F6B7E6B816B79
:1002A000806BB7D795908C90C050C00B0209C06E80
:1002B000C08EC280C150C00B0C09C16EB50EB16EAC
:1002C000000E016E54EF04F0030E7E5F09E3EA6A4C
:1002D0007E0EE96EEF5004E001D000D0EF2EFDD786
:1002E0001200010E7E6F7DC07FF07EDF7E6B7DC0D1
:1002F0007FF07ADFC80E7E6FE7DF000E016E12001E
:10030000050E7E6F7CC07FF06FDF040E7E6F7CC0B9
:100310007FF06ADFC80E7E6FD7DF000E016E12001D
:100320003C0E7D6FDEDF050E7C6F0DDF3C0E7D6FBA
:10033000D8DF050E7C6F07DF0C0E7D6FD2DF060E57
:100340007D6FCFDF400E7D6FCCDF7A6B7A513F0837
:1003500008E3036A7A5156DE7B6F7C6FD1DF7A2B1C
:10036000F5D7010E7D6FBDDF020E7C6FECDE000E57
:10037000016E55EF04F07A6B7A51030834E37AB3D7
:1003800002D08A9E01D08A8E939E7AB102D08A9C36
:1003900001D08A8C939C938481B407D07A51040D48
:1003A000F350030F016E21D01CD0938681B607D085
:1003B0007A51040DF350020F016E17D012D09388BA
:1003C00081B807D07A51040DF350010F016E0DD0A2
:1003D00008D0938A81BA05D07A51040DF3CF01F089
:1003E00004D07A2BC9D7FF0E016EB1EF02F0D8B25C
:1003F00003D0EA6A860EE96E006A016A026A036A3D
:10040000866B876B886B896B855184118311821190
:100410002CE0200E8A6FD8907E377F378037813767
:1004200086378737883789378551895D08E1845158
:10043000885D05E18351875D02E18251865D0FE3AE
:100440008251865F8351D8A0833D875F8451D8A0B5
:10045000843D885F8551D8A0853D895FD88000366E
:100460000136023603368A2FD6D786C0EFFF87C003
:10047000ECFF88C0ECFF89C0ECFF1200B250B3CF94
:1004800003F00A26B3500B22000E0C220D22B36A91
:10049000020EB26E0000A1A204D0010E0C26000EC6
:1004A0000D22A192D8920DC081F00CC080F00BC03B
:1004B0007FF00AC07EF0856B846B020E836F710E35
:1004C000826F95DF01C002F000C001F01200B2504F
:1004D000B3CF03F00A26B3500B22000E0C220D22DC
:1004E000B36A020EB26E0000A1A204D0010E0C2667
:1004F000000E0D22A192D8920DC081F00CC080F0A8
:100500000BC07FF00AC07EF0856B846B020E836F98
:10051000710E826F6CDF01C07DF000C07CF07B51FA
:100520007D5D0FE303E17A517C5D0BE37A517C5DE5
:10053000006E7B517D59036E00C001F0026E0FD03A
:100540000ED0FF0ED8807A557E6FFF0E7B557F6FE1
:100550007C517E25016E7D517F21036E026E12005B
:100560000AD701C023F02450FC0FD8B062D0040F8A
:100570001DEF03F0233C01D007D080DF02C026F03E
:1005800001C025F0010E246E54D0233C02D0246A11
:1005900018D026C07BF025C07AF099DF02C07BF02E
:1005A00001C07AF07B5303E17A511D080AE2020E82
:1005B000246E64DF02C026F001C025F0000E016E3B
:1005C0003AD037D0233C02D0246A18D026C07BF022
:1005D00025C07AF07CDF02C07BF001C07AF00250C7
:1005E00000080CE2FF0A03E17A51F30807E246DF54
:1005F00002C026F001C025F0030E246E1AD0233C61
:1006000002D0246A16D026C07BF025C07AF05FDFC6
:1006100002C07BF001C07AF07B5303E17A5163089A
:1006200008E22CDF02C026F001C025F0000E016EAA
:1006300002D0020E016E39EF03F0E824F76AF736B4
:10064000550FF66E060EF7220A00F550FA6E0800F6
:10065000F550F96E74058A05C405FE05036A7B51E1
:10066000F9DC7A257C6F7D6F3CDE000E016E120096
:1006700077D70152D8A4CBD0235009080AE3300E13
:1006800023243A6E27C04EF03BC062F04FC076F094
:1006900009D0370E23243A6E27C04EF03BC062F0DB
:1006A0004FC076F0776B7751120862E3036A775197
:1006B000270F016E000E032203C07BF0010E772589
:1006C000036A270FE96E000E0320EA6EEFCF7CF07D
:1006D0007BC0EAFF01C0E9FF7CC0EFFF036A7751EE
:1006E0003B0F016E000E032203C07BF0010E772545
:1006F000036A3B0FE96E000E0320EA6EEFCF7CF039
:100700007BC0EAFF01C0E9FF7CC0EFFF036A7751BD
:100710004F0F016E000E032203C07BF0010E772500
:10072000036A4F0FE96E000E0320EA6EEFCF7CF0F4
:100730007BC0EAFF01C0E9FF7CC0EFFF036A77518D
:10074000630F016E000E032203C07BF0010E7725BC
:10075000036A630FE96E000E0320EA6EEFCF7CF0B0
:100760007BC0EAFF01C0E9FF7CC0EFFF772B9BD77E
:100770007A6B7B6B73DF786B785112080CE3036A3A
:100780007851270FE96E000E0320EA6EEFCF7CF060
:10079000B7DD782BF1D77A6B010E7B6F5FDF786B5B
:1007A000785112080CE3036A78513B0FE96E000E92
:1007B0000320EA6EEFCF7CF0A3DD782BF1D77A6BC4
:1007C000020E7B6F4BDF786B785112080CE3036AE3
:1007D00078514F0FE96E000E0320EA6EEFCF7CF0E8
:1007E0008FDD782BF1D77A6B030E7B6F37DF786B59
:1007F000785112080CE3036A7851630FE96E000E1A
:100800000320EA6EEFCF7CF07BDD782BF1D756EF3B
:1008100004F0F86AD09EB886080EAF6E020EB06E75
:10082000A60EAC6E900EAB6E776B786B796BC15089
:10083000C00B0F09C16E070EB46E16D0064004003F
:100840000E4012FF0380000000030024000000138C
:10085000C02001800013C02001800013C02001804F
:100860000013C02001800000000EF86E080EF76E25
:100870003C0EF66E0900F550006E000A13E0090008
:10088000F550016EE8BE05D03F0BEA6E0900F5CFCA
:10089000E9FF01BC090001AC0900F5CFEEFF004EF5
:1008A000E9D7F9D7F86AD9D43BD5E2D6FED7030009
:020000040030CA
:0E00000027CC3E1E0087A1000FC00FE00F406E
:00000001FF
;PIC18F4550
;CRC=E699  CREATED="14-Mar-23 13:27"
