:0400000078EF01F0A4
:08000800046ED8CF05F0E0CF33
:1000100006F00001E9CF0CF0EACF07F0E1CF08F0DD
:10002000E2CF09F0D9CF0AF0DACF0BF0F3CF12F01C
:10003000F4CF13F0FACF14F0F5CF15F0F6CF16F099
:10004000F7CF17F0F8CF18F0FBCF19F000C00EF083
:1000500001C00FF002C010F003C011F09DA034EFFA
:1000600000F09EB071EF00F00EC000F00FC001F084
:1000700010C002F011C003F00CC0E9FF07C0EAFF96
:10008000078E08C0E1FF09C0E2FF0AC0D9FF0BC01C
:10009000DAFF12C0F3FF13C0F4FF14C0FAFF15C05B
:1000A000F5FF16C0F6FF17C0F7FF18C0F8FF19C01C
:1000B000FBFF045006C0E0FF05C0D8FF1000F76A40
:1000C000D20FF66E000EF722000EF86E0900F55002
:1000D0001200C0F9A4B0999282F880908883C6A1DA
:1000E000867F0B0ECF6EDC0ECE6E00003B2A9E90FC
:1000F00034EF00F0EA6A3E0EE96EEF500DE0060EB6
:10010000016E006A002EFED7012EFBD77B0E006E1B
:10011000002EFED7EF2EF3D712003C803D6A3D50F3
:10012000090814E33CB002D08C9001D08C809590EB
:100130009582000E83B2010E3F6E000E3CB0010EA0
:100140003F5CD8A403D03C703D2AE9D73D50090854
:100150000DE3956A8C68936A8A680A0E3E6ECADF60
:10016000936A8A6A0A0E3E6EC5DFF3D7000E016EEF
:1001700046EF01F0665022C066FF6430FEE3665031
:1001800021C066FF6430FEE3665020C066FF643025
:10019000FEE366501FC066FF6430FEE3959A8C8ACA
:1001A000959A8C9A000E016E5AEF01F0665027C0A6
:1001B00066FF6430FEE3665028C066FF6430FEE3ED
:1001C000665029C066FF6430FEE366502AC066FFB1
:1001D0006430FEE3665023C066FF6430FEE3665081
:1001E00024C066FF6430FEE3665025C066FF6430BD
:1001F000FEE3665026C066FF6430FEE3959E8C8E5B
:10020000959E8C9E080E3E6E75DF000E016E5BEFB4
:1002100001F03C6A3C50070829E3036A3C502B0F6D
:10022000E96E000E0320EA6EEFCF8DFF966A800E16
:100230003D6E3C50016E04E0D8903D32012EFCD75B
:1002400066503DC066FF6430FEE3929A898A929AB6
:10025000899A010E3E6E4EDF6650666A6430FEE398
:10026000929A898A929A899A3C2AD4D7000E016E72
:100270001200979E8E9E000E016E5DEF01F0979C1E
:100280008E9C000E016E5EEF01F047D7DF0E926E7E
:10029000040E956E000E966E976E986EFF0E946E1D
:1002A000F19E986A8F6A98908F80226A216A206AEC
:1002B0001F6A60D77BD7ADDFDCD7E1D7BD0EB16E4B
:1002C000000E016EA3EF01F03E50016A3D5C03E2B7
:1002D0003DC000F00CD0006A080E3F6E3D3600367F
:1002E0003E50005CD8B0006E01363F2EF7D71200AA
:1002F000F86AD09E078E639A000E646E200E636EBD
:100300009598958A959C386A396A3A6A3B6AC150D1
:10031000C00B0F09C16E070EB46E236824682568F0
:1003200026682768286829682A682B682C682D6841
:100330002E682F6830683168326833683468356AEF
:10034000366A376AA2D7B50ECD6E0B0ECF6EDC0EB5
:10035000CE6E00009D80C00EF2123B50090812E2E2
:100360000A0E3B5E3A2A3A503B080CE23A6A392AB6
:1003700039503B0807E2396A382A38500C0802E243
:10038000010E386E3AC03DF00A0E3E6E9DDF036AE4
:10039000005095DE2B6E3AC03DF00A0E3E6E94DFA3
:1003A00001C03DF00A0E3E6E8FDF036A005087DE0B
:1003B0002C6EBF0E2D6E39C03DF00A0E3E6E84DFEE
:1003C000036A00507CDE2E6E39C03DF00A0E3E6E90
:1003D0007BDF01C03DF00A0E3E6E76DF036A0050FF
:1003E0006EDE2F6EBF0E306E38C03DF00A0E3E6ED0
:1003F0006BDF036A005063DE316E38C03DF00A0ED9
:100400003E6E62DF01C03DF00A0E3E6E5DDF036AA4
:0C041000005055DE326EFDDEA0D7030068
:020000040030CA
:0E00000000C21E1EF385B100FFC0FFE0FF40EE
:00000001FF
;PIC18F6722
;CRC=BFDA  CREATED="26-Feb-23 21:20"
