:04000000FBEF04F01E
:08000800046ED8CF05F0E0CF33
:1000100006F00001E9CF0CF0EACF07F0E1CF08F0DD
:10002000E2CF09F0D9CF0AF0DACF0BF0F3CF12F01C
:10003000F4CF13F0FACF14F0F5CF15F0F6CF16F099
:10004000F7CF17F0F8CF18F0FBCF19F000C00EF083
:1000500001C00FF002C010F003C011F09DA034EFFA
:1000600000F09EB0D2EF00F00EC000F00FC001F023
:1000700010C002F011C003F00CC0E9FF07C0EAFF96
:10008000078E08C0E1FF09C0E2FF0AC0D9FF0BC01C
:10009000DAFF12C0F3FF13C0F4FF14C0FAFF15C05B
:1000A000F5FF16C0F6FF17C0F7FF18C0F8FF19C01C
:1000B000FBFF045006C0E0FF05C0D8FF1000F76A40
:1000C000D20FF66E000EF722000EF86E0900F55002
:1000D0001200EFDFBF7FF76AEA0FF66E000EF7221D
:1000E000000EF86E0900F5501200070F1F1F1F1FAA
:1000F0001F1F1F1F1F00000000001C1E1F1F1F1FAF
:100100001F1F00000000001F1F1F1F1F1F1F1F1F9A
:100110001E1C1F1F1F1F1F1F0F071F1F1F00000078
:100120001F1F1F1F1F1F1F1F1F1FF76A3E0FF66E87
:10013000010EF722000EF86E0900F550120080C083
:1001400094D4202020202020202020202020202087
:100150002020202020200000202000004348494E7D
:10016000482047494F00202000004348494E48207E
:10017000504855540000202000004348494E482074
:100180004749415900002020000043414920474988
:100190004F492048414E20535000323031343231E3
:1001A000353700000B0ECF6EDC0ECE6E00003C2A01
:1001B0009E9034EF00F0EA6A4B0EE96EEF500DE0CE
:1001C000060E016E006A002EFED7012EFBD77B0EB5
:1001D000006E002EFED7EF2EF3D7120049804A6A38
:1001E0004A50090814E349B002D08C9001D08C80A9
:1001F00095909582000E83B2010E4C6E000E49B0B0
:10020000010E4C5CD8A403D049704A2AE9D74A5061
:1002100009080DE3956A8C68936A8A680A0E4B6E2A
:10022000CADF936A8A6A0A0E4B6EC5DFF3D7000EE7
:10023000016EA8EF01F0665022C066FF6430FEE355
:10024000665021C066FF6430FEE3665020C066FF42
:100250006430FEE366501FC066FF6430FEE3959A8B
:100260008C8A959A8C9A000E016EBCEF01F0665054
:1002700027C066FF6430FEE3665028C066FF643026
:10028000FEE3665029C066FF6430FEE366502AC074
:1002900066FF6430FEE3665023C066FF6430FEE311
:1002A000665024C066FF6430FEE3665025C066FFDA
:1002B0006430FEE3665026C066FF6430FEE3959E20
:1002C0008C8E959E8C9E080E4B6E75DF000E016E17
:1002D000BDEF01F0496A4950070829E3036A495014
:1002E0002B0FE96E000E0320EA6EEFCF8DFF966AAA
:1002F000800E4A6E4950016E04E0D8904A32012EB9
:10030000FCD766504AC066FF6430FEE3929A898A41
:10031000929A899A010E4B6E4EDF6650666A64307F
:10032000FEE3929A898A929A899A492AD4D7000E32
:10033000016EBEEF01F0979E8E9E000E016EBFEF24
:1003400001F0979C8E9C000E016EC0EF01F046D725
:10035000DF0E926E040E956E000E966E976E986E7E
:10036000FF0E946EF19E986A8F6A98908F80226A31
:10037000216A206A1F6A5FD77AD7ACD7DCD7E1D76A
:10038000BD0EB16E000E016E30EF05F04DB002D023
:100390008E9A01D08E8A979A4DB402D08E9001D059
:1003A0008E809790966A4EC08DFF000E016E1200EF
:1003B000030E4D5E09E3EA6A4D0EE96EEF5004E06C
:1003C00001D000D0EF2EFDD71200010E4D6E4CC0B3
:1003D0004EF0DCDF4D6A4CC04EF0D8DFC80E4D6EDB
:1003E000E7DF000E016E1200050E4D6E4CC04EF0A0
:1003F000CDDF040E4D6E4CC04EF0C8DFC80E4D6E02
:10040000D7DF000E016E12003C0E4C6EDEDF050ED3
:100410004B6ED1DE3C0E4C6ED8DF050E4B6ECBDE44
:100420000C0E4C6ED2DF060E4C6ECFDF400E4C6EC3
:10043000CCDF496A49503F0808E3036A49504BDE64
:100440004A6E4C6ED1DF492AF5D7010E4C6EBDDFE6
:10045000020E4B6EB0DE000E016E31EF05F0036A46
:100460004A5063DE49244B6E4C6EAFDF000E016EC6
:1004700012000900F55210E0F6CF49F0F7CF4AF02C
:10048000F8CF4BF0F5CF4CF0AFDF49C0F6FF4AC0D4
:10049000F7FF4BC0F8FFEDD71200496A4950030837
:1004A0004CE3036A49500BDE800B02E0938E02D0CE
:1004B000939E8A9E036A495002DE400B02E0938CB1
:1004C00002D0939C8A9C036A4950F9DD200B02E01C
:1004D000938A02D0939A8A9A036A4950F0DD100BEE
:1004E00002E0938802D093988A98938081B006D0D6
:1004F0004950040DF3CF01F022D01DD0938281B278
:1005000007D04950040DF350010F016E18D013D0DD
:10051000938481B407D04950040DF350020F016E4B
:100520000ED009D0938681B606D04950040DF35001
:10053000030F016E04D0492AB1D7FF0E016E5BEFA5
:1005400003F0D8B203D0EA6A550EE96E006A016A78
:10055000026A036A556A566A576A586A54505310B9
:10056000521051102CE0200E596ED8904D364E3658
:100570004F36503655365636573658365450585CE6
:1005800008E15350575C05E15250565C02E151506E
:10059000555C0FE35150555E5250D8A0523C565E08
:1005A0005350D8A0533C575E5450D8A0543C585E8A
:1005B000D8800036013602360336592ED6D755C0BC
:1005C000EFFF56C0ECFF57C0ECFF58C0ECFF120025
:1005D000B250B3CF03F01B26B3501C22000E1D22D5
:1005E0001E22B36A020EB26E0000A1A204D0010E58
:1005F0001D26000E1E22A192D8921EC050F01DC0D2
:100600004FF01CC04EF01BC04DF0546A536A020EEE
:10061000526E710E516E95DF01C002F000C001F004
:100620001200B250B3CF03F01B26B3501C22000EB1
:100630001D221E22B36A020EB26E0000A1A204D0D7
:10064000010E1D26000E1E22A192D8921EC050F04F
:100650001DC04FF01CC04EF01BC04DF0546A536AD1
:10066000020E526E710E516E6CDF01C04CF000C074
:100670004BF04A504C5C0FE303E149504B5C0BE3F9
:1006800049504B5C006E4A504C58036E00C001F05C
:10069000026E0FD00ED0FF0ED88049544D6EFF0E63
:1006A0004A544E6E4B504D24016E4C504E20036EFA
:1006B000026E1200F2D601C038F03950FC0FD8B0EB
:1006C00062D0040FC7EF03F0383C01D007D080DFC1
:1006D00002C03BF001C03AF0010E396E54D0383CF4
:1006E00002D0396A18D03BC04AF03AC049F099DFCD
:1006F00002C04AF001C049F04A5203E149501D08C6
:100700000AE2020E396E64DF02C03BF001C03AF02B
:10071000000E016E3AD037D0383C02D0396A18D07A
:100720003BC04AF03AC049F07CDF02C04AF001C049
:1007300049F0025000080CE2FF0A03E14950F308B7
:1007400007E246DF02C03BF001C03AF0030E396E0B
:100750001AD0383C02D0396A16D03BC04AF03AC0B1
:1007600049F05FDF02C04AF001C049F04A5203E19C
:100770004950630808E22CDF02C03BF001C03AF0A8
:10078000000E016E02D0020E016EDCEF03F0E824D1
:10079000F76AF736AF0FF66E070EF722000EF86E07
:1007A000FB6E0A00F550FA6E0800F550F96EC806A7
:1007B000DE06180752077ED701525AE138500F085B
:1007C00013E13D2A3E6A3DBE04D03D50040801E2DB
:1007D0003D6A496A030E4A6E42DE420EF66E010E13
:1007E000F76E000EF86E45DE3850090841E33E52C0
:1007F0000BE138500A0DF3CF3FF03D50040804E1FF
:1008000038500A0DF3CF40F03E2C07D038503F2629
:100810003D50040802E1385040263E2A3EBE04D036
:100820003E50010801E23E6A3D2C0AD03FC041F033
:1008300041BE06D041500C0803E2010E416E3E6AF3
:100840003D50020809E13FC042F042BE05D042508F
:100850003B0802E2426A3E6A3D50030809E13FC09C
:1008600043F043BE05D043503B0802E2436A3E6A70
:1008700012003D2C25D0060E496E010E4A6EEFDDAA
:10088000580EF66E010EF76E000EF86EF2DD496A34
:10089000030E4A6EE4DD5C0EF66E010EF76E000E7E
:1008A000F86EE7DD466A456A4650010809E303E150
:1008B0004550F30805E37FDF452AD8B4462AF4D72C
:1008C0003D50020825E1090E496E010E4A6EC7DD52
:1008D000660EF66E010EF76E000EF86ECADD496AFE
:1008E000030E4A6EBCDD6A0EF66E010EF76E000E48
:1008F000F86EBFDD466A456A4650010809E303E128
:100900004550F30805E357DF452AD8B4462AF4D703
:100910003D50030825E10C0E496E010E4A6E9FDD25
:10092000760EF66E010EF76E000EF86EA2DD496AC5
:10093000030E4A6E94DD7A0EF66E010EF76E000E0F
:10094000F86E97DD466A456A4650010809E303E1FF
:100950004550F30805E32FDF452AD8B4462AF4D7DB
:100960003D50040822E1496A020E4A6E78DD860E87
:10097000F66E010EF76E000EF86E7BDD496A030E0F
:100980004A6E6DDD8A0EF66E010EF76E000EF86E81
:1009900070DD466A456A465208E14550C70805E3DE
:1009A0000ADF452AD8B4462AF6D74DEF05F04A505B
:1009B0004B18800B4D6E4AAE02D04A1E4A2A4BAEEF
:1009C00002D04B1E4B2A4B50016A4A5C03E24AC0DC
:1009D00000F00CD0006A080E4C6E4A3600364B50C0
:1009E000005CD8B0006E01364C2EF7D74DAE02D069
:1009F000011E012A1200F86AD09E078E639A000E2B
:100A0000646E200E636E9598958A959C3C6A3D6A4B
:100A10003E6A3F6A406A416A426A436A446A486A77
:100A2000476AC150C00B0F09C16E070EB46E236830
:100A30002468256826682768286829682A682B683A
:100A40002C682D682E682F683068316832683368EA
:100A50003468356A366A376A396A3A6A3B6A77D4E3
:100A6000D3D4060E496E4A6AFADC9A0EF66E010E6F
:100A7000F76E000EF86EFDDCB50ECD6E0B0ECF6E70
:100A8000DC0ECE6E0000A80ED56ED76AD66A0000C6
:100A90009D80C00EF2128FDEECD63CBE1BD03C50C7
:100AA000090818E20A0E3C5E432A43BE13D04350A5
:100AB0003B0810E2436A422A42BE0CD042503B0837
:100AC00009E2426A412A41BE05D041500C0802E2C7
:100AD000010E416ED650446E4050800A006E445064
:100AE000800A005C04E2D76A010ED66E0000060E92
:100AF000496E010E4A6EB3DC41C04AF00A0E4B6EDD
:100B000056DF01C04AF00A0E4B6E51DF300E002452
:100B1000496E4C6E69DC41C04AF00A0E4B6E47DFED
:100B2000300E0024496E4C6E5FDC3A0E4C6E5CDC7D
:100B300042C04AF00A0E4B6E3ADF01C04AF00A0E7C
:100B40004B6E35DF300E0024496E4C6E4DDC42C0DA
:100B50004AF00A0E4B6E2BDF300E0024496E4C6EAD
:100B600043DC3A0E4C6E40DC43C04AF00A0E4B6E3A
:100B70001EDF01C04AF00A0E4B6E19DF300E002452
:100B8000496E4C6E31DC43C04AF00A0E4B6E0FDFEB
:100B9000300E0024496E4C6E27DC496A020E4A6E04
:100BA0005EDC40C04AF00A0E4B6E01DF01C04AF025
:100BB0000A0E4B6EFCDE300E0024496E4C6E14DCC7
:100BC00040C04AF00A0E4B6EF2DE300E0024496E31
:100BD0004C6E0ADC120E496E020E4A6E40DC44C0B6
:100BE0004AF00A0E4B6EE3DE01C04AF00A0E4B6E6D
:100BF000DEDE300E0024496E4C6EF4EC01F044C091
:100C00004AF00A0E4B6ED3DE300E0024496E4C6E55
:080C1000F4EC01F040D70300F1
:020000040030CA
:0E00000000C21E1EF385B100FFC0FFE0FF40EE
:00000001FF
;PIC18F6722
;CRC=0E6B  CREATED="10-Mar-23 09:19"
