:0400000056EF05F0C2
:08000800046ED8CF05F0E0CF33
:1000100006F00001E9CF0CF0EACF07F0E1CF08F0DD
:10002000E2CF09F0D9CF0AF0DACF0BF0F3CF12F01C
:10003000F4CF13F0FACF14F0F5CF15F0F6CF16F099
:10004000F7CF17F0F8CF18F0FBCF19F000C00EF083
:1000500001C00FF002C010F003C011F09DA034EFFA
:1000600000F09EB0ECEF00F00EC000F00FC001F009
:1000700010C002F011C003F00CC0E9FF07C0EAFF96
:10008000078E08C0E1FF09C0E2FF0AC0D9FF0BC01C
:10009000DAFF12C0F3FF13C0F4FF14C0FAFF15C05B
:1000A000F5FF16C0F6FF17C0F7FF18C0F8FF19C01C
:1000B000FBFF045006C0E0FF05C0D8FF1000F76A40
:1000C000D20FF66E000EF722000EF86E0900F55002
:1000D0001200EFDFBF7FF76AEA0FF66E000EF7221D
:1000E000000EF86E0900F55012000001020503042D
:1000F00001022003070306060205030306060203A6
:10010000030405030720200707060603030400066F
:100110000605030401010720200700060205030469
:10012000000602030304202020202020F76A400F4D
:10013000F66E010EF722000EF86E0900F55012005F
:10014000070F1F1F1F1F1F1F1F1F1F000000000082
:100150001C1E1F1F1F1F1F1F00000000001F1F1F4E
:100160001F1F1F1F1F1F1E1C1F1F1F1F1F1F0F07CB
:100170001F1F1F0000001F1F1F1F1F1F1F1F1F1FEC
:10018000F76A940FF66E010EF722000EF86E090062
:10019000F550120080C094D42020202020200000A0
:1001A00020202020202000002020202020200000CF
:1001B00020202020202000002020202020200000BF
:1001C00020202020202000002020202020200000AF
:1001D00020202020202000000B0ECF6EDC0ECE6EE3
:1001E00000003C2A9E9034EF00F0EA6A4B0EE96E64
:1001F000EF500DE0060E016E006A002EFED7012EB4
:10020000FBD77B0E006E002EFED7EF2EF3D7120029
:1002100049804A6A4A50090814E349B002D08C90D8
:1002200001D08C8095909582000E83B2010E4C6EA9
:10023000000E49B0010E4C5CD8A403D049704A2A84
:10024000E9D74A5009080DE3956A8C68936A8A6871
:100250000A0E4B6ECADF936A8A6A0A0E4B6EC5DFBE
:10026000F3D7000E016EC2EF01F0665022C066FFA8
:100270006430FEE3665021C066FF6430FEE36650E2
:1002800020C066FF6430FEE366501FC066FF643026
:10029000FEE3959A8C8A959A8C9A000E016ED6EFA1
:1002A00001F0665027C066FF6430FEE3665028C048
:1002B00066FF6430FEE3665029C066FF6430FEE3EB
:1002C00066502AC066FF6430FEE3665023C066FFB6
:1002D0006430FEE3665024C066FF6430FEE366507F
:1002E00025C066FF6430FEE3665026C066FF6430BA
:1002F000FEE3959E8C8E959E8C9E080E4B6E75DF50
:10030000000E016ED7EF01F0496A4950070829E352
:10031000036A49502B0FE96E000E0320EA6EEFCFFF
:100320008DFF966A800E4A6E4950016E04E0D890A7
:100330004A32012EFCD766504AC066FF6430FEE3A5
:10034000929A898A929A899A010E4B6E4EDF665074
:10035000666A6430FEE3929A898A929A899A492A57
:10036000D4D7000E016ED8EF01F0979E8E9E000E3E
:10037000016ED9EF01F0979C8E9C000E016EDAEFB2
:1003800001F046D7DF0E926E040E956E000E966E4B
:10039000976E986EFF0E946EF19E986A8F6A989091
:1003A0008F80226A216A206A1F6A5FD77AD7ACD70A
:1003B000DCD7E1D7BD0EB16E000E016E8BEF05F0FC
:1003C00053B002D08E9A01D08E8A979A53B402D03D
:1003D0008E9001D08E809790966A54C08DFF000E4B
:1003E000016E1200030E535E09E3EA6A530EE96ED2
:1003F000EF5004E001D000D0EF2EFDD71200010E27
:10040000536E52C054F0DCDF536A52C054F0D8DF50
:10041000C80E536EE7DF000E016E1200050E536E1C
:100420004FC054F0CDDF040E536E4FC054F0C8DF00
:10043000C80E536ED7DF000E016E12003C0E526ED6
:10044000DEDF050E4B6ED1DE3C0E526ED8DF050EA0
:100450004B6ECBDE0C0E526ED2DF060E526ECFDF2D
:10046000400E526ECCDF496A49503F0808E3036AE8
:1004700049505CDE4A6E4F6ED1DF492AF5D7010E36
:10048000526EBDDF020E4B6EB0DE000E016E8CEFC1
:1004900005F0496A495003084CE3036A49500FDEEE
:1004A000800B02E0938E02D0939E8A9E036A49508D
:1004B00006DE400B02E0938C02D0939C8A9C036A78
:1004C0004950FDDD200B02E0938A02D0939A8A9A6C
:1004D000036A4950F4DD100B02E0938802D0939830
:1004E0008A98938081B006D04950040DF3CF01F073
:1004F00022D01DD0938281B207D04950040DF35011
:10050000010F016E18D013D0938481B407D04950E5
:10051000040DF350020F016E0ED009D0938681B600
:1005200006D04950040DF350030F016E04D0492A40
:10053000B1D7FF0E016E57EF03F0D8B203D0EA6ACD
:10054000550EE96E006A016A026A036A556A566AC4
:10055000576A586A54505310521051102CE0200E14
:10056000596ED8904D364E364F3650365536563633
:10057000573658365450585C08E15350575C05E1E3
:100580005250565C02E15150555C0FE35150555E9C
:100590005250D8A0523C565E5350D8A0533C575EA0
:1005A0005450D8A0543C585ED880003601360236EC
:1005B0000336592ED6D755C0EFFF56C0ECFF57C0B3
:1005C000ECFF58C0ECFF1200B250B3CF03F01B2673
:1005D000B3501C22000E1D221E22B36A020EB26E00
:1005E0000000A1A204D0010E1D26000E1E22A19221
:1005F000D8921EC050F01DC04FF01CC04EF01BC062
:100600004DF0546A536A020E526E710E516E95DFB0
:1006100001C002F000C001F01200B250B3CF03F0ED
:100620001B26B3501C22000E1D221E22B36A020E8E
:10063000B26E0000A1A204D0010E1D26000E1E22E3
:10064000A192D8921EC050F01DC04FF01CC04EF0B9
:100650001BC04DF0546A536A020E526E710E516EF9
:100660006CDF01C04CF000C04BF04A504C5C0FE313
:1006700003E149504B5C0BE349504B5C006E4A5020
:100680004C58036E00C001F0026E0FD00ED0FF0E6A
:10069000D88049544D6EFF0E4A544E6E4B504D2437
:1006A000016E4C504E20036E026E1200F2D601C055
:1006B00038F03950FC0FD8B062D0040FC3EF03F00C
:1006C000383C01D007D080DF02C03BF001C03AF0D7
:1006D000010E396E54D0383C02D0396A18D03BC074
:1006E0004AF03AC049F099DF02C04AF001C049F02F
:1006F0004A5203E149501D080AE2020E396E64DFD6
:1007000002C03BF001C03AF0000E016E3AD037D083
:10071000383C02D0396A18D03BC04AF03AC049F0A0
:100720007CDF02C04AF001C049F0025000080CE230
:10073000FF0A03E14950F30807E246DF02C03BF03D
:1007400001C03AF0030E396E1AD0383C02D0396A33
:1007500016D03BC04AF03AC049F05FDF02C04AF011
:1007600001C049F04A5203E14950630808E22CDF16
:1007700002C03BF001C03AF0000E016E02D0020E42
:10078000016ED8EF03F0E824F76AF736A70FF66E8C
:10079000070EF722000EF86EFB6E0A00F550FA6E97
:1007A0000800F550F96EC006D60610074A077ED736
:1007B00001524FE138500F0808E13D2A3E6A3DBE24
:1007C00004D03D50040801E23D6A3850090841E375
:1007D0003E520BE138500A0DF3CF3FF03D50040874
:1007E00004E138500A0DF3CF40F03E2C07D03850CA
:1007F0003F263D50040802E1385040263E2A3EBEC6
:1008000004D03E50010801E23E6A3D2C0AD03FC0B0
:1008100041F041BE06D041500C0803E2010E416E8A
:100820003E6A3D50020809E13FC042F042BE05D099
:1008300042503B0802E2426A3E6A3D50030809E129
:100840003FC043F043BE05D043503B0802E2436A39
:100850003E6A1200036A505093DC4F24516E526E70
:10086000CEDD000E016E12000900F55210E0F6CF49
:1008700049F0F7CF4AF0F8CF4BF0F5CF4FF0CEDD8F
:1008800049C0F6FF4AC0F7FF4BC0F8FFEDD7120092
:100890003D2C21D04F6A506ADDDF980EF66E010EB6
:1008A000F76E000EF86EE0DF4F6A010E506ED2DF79
:1008B000A00EF66E010EF76E000EF86ED5DF466ADA
:1008C000456A465208E14550F90805E370DF452ABC
:1008D000D8B4462AF6D73D50020823E1070E4F6EE2
:1008E000506AB8DFA80EF66E010EF76E000EF86EB5
:1008F000BBDF070E4F6E010E506EACDFB00EF66E12
:10090000010EF76E000EF86EAFDF466A456A46527A
:1009100008E14550F90805E34ADF452AD8B4462ADC
:10092000F6D73D50030823E10E0E4F6E506A92DF5A
:10093000B80EF66E010EF76E000EF86E95DF0E0E15
:100940004F6E010E506E86DFC00EF66E010EF76E12
:10095000000EF86E89DF466A456A465208E1455046
:10096000F90805E324DF452AD8B4462AF6D73D50D6
:10097000040822E14F6A020E506E6CDFC80EF66E5C
:10098000010EF76E000EF86E6FDF4F6A030E506EA9
:1009900061DFD00EF66E010EF76E000EF86E64DFAA
:1009A000466A456A465208E14550F90805E3FFDE0C
:1009B000452AD8B4462AF6D79DEF05F04A504B1881
:1009C000800B4D6E4AAE02D04A1E4A2A4BAE02D070
:1009D0004B1E4B2A4B50016A4A5C03E24AC000F0AE
:1009E0000CD0006A080E4C6E4A3600364B50005C44
:1009F000D8B0006E01364C2EF7D74DAE02D0011E96
:100A0000012A1200006A016A4E50D8904FB00026A9
:100A1000003201324FB20026003201324FB40026BC
:100A2000003201324FB60026003201324FB80026A4
:100A3000003201324FBA0026003201324FBC00268C
:100A4000003201324FBE00260032013240EF05F085
:100A50004BC04FF04CC050F0FDDE4D6A4D500508C4
:100A600022E34D50030807E1010E4C244E6E4BC0AB
:100A70004FF0506EEFDE4AC04EF0060E4F6EC2D7FA
:100A800001504F6A4E6EE8BE4F06036A4D504E2429
:100A9000016E4F50032201506BEC00F04E6E4F6E12
:100AA000BDDC4D2ADBD7000E016E1200F86AD09E25
:100AB000078E639A000E646E200E636E9598958A79
:100AC000959C3C6A3D6A3E6A3F6A406A416A426A56
:100AD000436A446A486A476AC150C00B0F09C16E35
:100AE000070EB46E2368246825682668276828687E
:100AF00029682A682B682C682D682E682F68306852
:100B00003168326833683468356A366A376A396AF8
:100B10003A6A3B6A36D492D4B50ECD6E0B0ECF6EC8
:100B2000DC0ECE6E0000A80ED56ED76AD66A000025
:100B30009D80C00EF2123BDEABD63CBE1BD03C50BB
:100B4000090818E20A0E3C5E432A43BE13D0435004
:100B50003B0810E2436A422A42BE0CD042503B0896
:100B600009E2426A412A41BE05D041500C0802E226
:100B7000010E416ED650446E4050800A006E4450C3
:100B8000800A005C04E2D76A010ED66E000041C004
:100B90004AF00A0E4B6E12DF01C04AF00A0E4B6E8D
:100BA0000DDF00C049F000C04AF04B6A4C6A50DFCC
:100BB00041C04AF00A0E4B6E01DF00C049F000C090
:100BC0004AF0030E4B6E4C6A43DF42C04AF00A0EF5
:100BD0004B6EF4DE01C04AF00A0E4B6EEFDE00C031
:100BE00049F000C04AF0070E4B6E4C6A31DF42C03C
:100BF0004AF00A0E4B6EE2DE00C049F000C04AF037
:100C00000A0E4B6E4C6A24DF43C04AF00A0E4B6E4C
:100C1000D5DE01C04AF00A0E4B6ED0DE00C049F0AE
:100C200000C04AF00E0E4B6E4C6A12DF43C04AF011
:100C30000A0E4B6EC3DE00C049F000C04AF0110E30
:100C40004B6E4C6A05DF40C04AF00A0E4B6EB6DEB2
:100C500001C04AF00A0E4B6EB1DE00C049F000C080
:100C60004AF04B6A020E4C6EF3DE40C04AF00A0EA8
:100C70004B6EA4DE00C049F000C04AF0030E4B6E7C
:100C8000020E4C6EE5DE44C04AF00A0E4B6E96DE54
:100C900001C04AF00A0E4B6E91DE00C049F000C060
:100CA0004AF00E0E4B6E020E4C6ED2DE44C04AF07D
:100CB0000A0E4B6E83DE00C049F000C04AF0110EF0
:0C0CC0004B6E020E4C6EC4DE36D70300F3
:020000040030CA
:0E00000000C21E1EF385B100FFC0FFE0FF40EE
:00000001FF
;PIC18F6722
;CRC=97E2  CREATED="17-Mar-23 09:06"
