:040000006AEF03F0B0
:08000800046ED8CF05F0E0CF33
:1000100006F00001E9CF0CF0EACF07F0E1CF08F0DD
:10002000E2CF09F0D9CF0AF0DACF0BF0F3CF12F01C
:10003000F4CF13F0FACF14F0F5CF15F0F6CF16F099
:10004000F7CF17F0F8CF18F0FBCF19F000C00EF083
:1000500001C00FF002C010F003C011F09DA034EFFA
:1000600000F09EB07DEF00F00EC000F00FC001F078
:1000700010C002F011C003F00CC0E9FF07C0EAFF96
:10008000078E08C0E1FF09C0E2FF0AC0D9FF0BC01C
:10009000DAFF12C0F3FF13C0F4FF14C0FAFF15C05B
:1000A000F5FF16C0F6FF17C0F7FF18C0F8FF19C01C
:1000B000FBFF045006C0E0FF05C0D8FF1000F76A40
:1000C000D20FF66E000EF722000EF86E0900F55002
:1000D0001200C0F9A4B0999282F880908883C6A1DA
:1000E000867FF76AF60FF66E000EF722000EF86EA6
:1000F0000900F5501200EFDFBF7F0B0ECF6EDC0E54
:10010000CE6E0000422A9E9034EF00F0EA6A4C0E58
:10011000E96EEF500DE0060E016E006A002EFED76C
:10012000012EFBD77B0E006E002EFED7EF2EF3D7ED
:1001300012004A804B6A4B50090814E34AB002D0BF
:100140008C9001D08C8095909582000E83B2010E28
:100150004D6E000E4AB0010E4D5CD8A403D04A701B
:100160004B2AE9D74B5009080DE3956A8C68936ACE
:100170008A680A0E4C6ECADF936A8A6A0A0E4C6E4F
:10018000C5DFF3D7000E016E52EF01F0665022C0BA
:1001900066FF6430FEE3665021C066FF6430FEE314
:1001A000665020C066FF6430FEE366501FC066FFE5
:1001B0006430FEE3959A8C8A959A8C9A000E016EB3
:1001C00066EF01F0665027C066FF6430FEE36650BC
:1001D00028C066FF6430FEE3665029C066FF6430C5
:1001E000FEE366502AC066FF6430FEE3665023C01B
:1001F00066FF6430FEE3665024C066FF6430FEE3B1
:10020000665025C066FF6430FEE3665026C066FF78
:100210006430FEE3959E8C8E959E8C9E080E4C6EEF
:1002200075DF000E016E67EF01F04A6A4A50070859
:1002300029E3036A4A502B0FE96E000E0320EA6E91
:10024000EFCF8DFF966A800E4B6E4A50016E04E030
:10025000D8904B32012EFCD766504BC066FF6430FD
:10026000FEE3929A898A929A899A010E4C6E4EDF29
:100270006650666A6430FEE3929A898A929A899AF5
:100280004A2AD4D7000E016E1200979E8E9E000E51
:10029000016E69EF01F0979C8E9C000E016E6AEF73
:1002A00001F047D7DF0E926E040E956E000E966E2B
:1002B000976E986EFF0E946EF19E986A8F6A989072
:1002C0008F80226A216A206A1F6A60D77BD7ADDFE0
:1002D000DCD7E1D7BD0EB16E000E016E9CEF03F0CE
:1002E0004A6A4A5003084CE3036A4A50FADE800B1C
:1002F00002E0938E02D0939E8A9E036A4A50F1DEFA
:10030000400B02E0938C02D0939C8A9C036A4A5073
:10031000E8DE200B02E0938A02D0939A8A9A036A5D
:100320004A50DFDE100B02E0938802D093988A983F
:10033000938081B006D04A50040DF3CF01F022D053
:100340001DD0938281B207D04A50040DF350010FA3
:10035000016E18D013D0938481B407D04A50040D95
:10036000F350020F016E0ED009D0938681B606D0ED
:100370004A50040DF350030F016E04D04A2AB1D73E
:10038000FF0E016E7EEF02F0D8B203D0EA6A560E7D
:10039000E96E006A016A026A036A566A576A586A15
:1003A000596A55505410531052102CE0200E5A6EBA
:1003B000D8904E364F365036513656365736583618
:1003C00059365550595C08E15450585C05E153507A
:1003D000575C02E15250565C0FE35250565E535048
:1003E000D8A0533C575E5450D8A0543C585E55504A
:1003F000D8A0553C595ED880003601360236033607
:100400005A2ED6D756C0EFFF57C0ECFF58C0ECFFAE
:1004100059C0ECFF1200B250B3CF03F01B26B3500B
:100420001C22000E1D221E22B36A020EB26E0000B4
:10043000A1A204D0010E1D26000E1E22A192D89268
:100440001EC051F01DC050F01CC04FF01BC04EF03C
:10045000556A546A020E536E710E526E95DF01C0DA
:1004600002F000C001F01200B250B3CF03F01B261F
:10047000B3501C22000E1D221E22B36A020EB26E61
:100480000000A1A204D0010E1D26000E1E22A19282
:10049000D8921EC051F01DC050F01CC04FF01BC0C0
:1004A0004EF0556A546A020E536E710E526E6CDF36
:1004B00001C04DF000C04CF04B504D5C0FE303E128
:1004C0004A504C5C0BE34A504C5C006E4B504D580C
:1004D000036E00C001F0026E0FD00ED0FF0ED88068
:1004E0004A544E6EFF0E4B544F6E4C504E24016ECC
:1004F0004D504F20036E026E1200F2D601C038F04C
:100500003950FC0FD8B062D0040FEAEF02F0383C4B
:1005100001D007D080DF02C03BF001C03AF0010EED
:10052000396E54D0383C02D0396A18D03BC04BF0F9
:100530003AC04AF099DF02C04BF001C04AF04B527A
:1005400003E14A501D080AE2020E396E64DF02C060
:100550003BF001C03AF0000E016E3AD037D0383C83
:1005600002D0396A18D03BC04BF03AC04AF07CDF69
:1005700002C04BF001C04AF0025000080CE2FF0A32
:1005800003E14A50F30807E246DF02C03BF001C036
:100590003AF0030E396E1AD0383C02D0396A16D0C0
:1005A0003BC04BF03AC04AF05FDF02C04BF001C0E5
:1005B0004AF04B5203E14A50630808E22CDF02C0C4
:1005C0003BF001C03AF0000E016E02D0020E016E47
:1005D000FFEF02F0E824F76AF736F50FF66E050E26
:1005E000F722000EF86EFB6E0A00F550FA6E080056
:1005F000F550F96E0E0524055E0598057ED701526B
:1006000030E1385009081AE33C5208E138500A0D2D
:10061000F3CF3DF038500A0DF3CF47F03C2C06D015
:1006200038503D26385047263DC03FF03C2A3CBE5E
:1006300004D03C50010801E23C6A13D038500D0848
:1006400002E149720ED038500C0802E1497009D01D
:1006500038500E0806E1482A476A4850030801E26C
:10066000486A12004B504C18800B4E6E4BAE02D0B5
:100670004B1E4B2A4CAE02D04C1E4C2A4C50016AE9
:100680004B5C03E24BC000F00CD0006A080E4D6ECC
:100690004B3600364C50005CD8B0006E01364D2E03
:1006A000F7D74EAE02D0011E012A12004C50016A4B
:1006B0004B5C03E24BC000F00CD0006A080E4D6E9C
:1006C0004B3600364C50005CD8B0006E01364D2ED3
:1006D000F7D71200F86AD09E078E639A000E646EF8
:1006E000200E636E9598958A959C3C6A3D6A3E6A99
:1006F0003F6A406A416A49904992C150C00B0F0954
:10070000C16E070EB46E23682468256826682768C2
:10071000286829682A682B682C682D682E682F683D
:1007200030683168326833683468356A366A376AE7
:10073000396A3A6A3B6AB5D5A80ED56ED76AD66AC9
:100740000000B50ECD6E0B0ECF6EDC0ECE6E00002F
:100750009D80C00EF21252DF42BE15D042500908F1
:1007600012E20A0E425E452A45503B080CE2456AF9
:10077000442A44503B0807E2446A432A43500C0889
:1007800002E2010E436E49B084D0D650406E40BEA6
:1007900008D04050640805E2D76AD66A0000D650F7
:1007A000406E49B210D04150405C0CE040C041F076
:1007B0003E2A3F50800A006E3E50800A005C02E2F2
:1007C000010E3E6E0AD04150405C07E040C041F04F
:1007D0003E063EAE02D03FC03EF03C2C1ED04650FE
:1007E000310804E32F6821DD462A16D0465031082F
:1007F00012E2465063080FE33FC04BF00A0E4C6E06
:1008000031DF036A005000BE030659DC800F2F6EF3
:100810000CDD462A01D0466A0CD03FC04BF00A0ED0
:100820004C6E20DF036A005000BE030648DC800FD8
:100830002F6E2B682C683EC04BF00A0E4C6E12DFF8
:10084000036A005000BE03063ADC2D6E3EC04BF03A
:100850000A0E4C6E07DF01C04BF00A0E4C6E02DF31
:10086000036A005000BE03062ADC2E6E3DC04BF02A
:100870000A0E4C6EF7DE01C04BF00A0E4C6EF2DE33
:10088000036A005000BE03061ADC306E316832681D
:10089000CCDC49A0F4D045C04BF00A0E4C6E06DF0C
:1008A000036A00500CDC2B6E45C04BF00A0E4C6EF8
:1008B000FDDE01C04BF00A0E4C6EF8DE036A0050FC
:1008C0005FEC00F02C6EBF0E2D6E44C04BF00A0E94
:1008D0004C6EECDE036A00505FEC00F02E6E44C0FC
:1008E0004BF00A0E4C6EE2DE01C04BF00A0E4C6E6D
:1008F000DDDE036A00505FEC00F02F6EBF0E306E3D
:1009000043C04BF00A0E4C6ED1DE036A00505FEC20
:1009100000F0316E43C04BF00A0E4C6EC7DE01C0D2
:100920004BF00A0E4C6EC2DE036A00505FEC00F022
:10093000326E482C33D047C043F043500C0802E2DB
:10094000436A3C6A3168326846501D0804E36DDC36
:1009500055DE462A23D046501D081FE246503B086C
:100960001CE343C04BF00A0E4C6EA0DE036A00503D
:100970005FEC00F0316E43C04BF00A0E4C6E96DE19
:1009800001C04BF00A0E4C6E91DE036A00505FEC22
:1009900000F0326E4ADC462A01D0466A485002080E
:1009A00033E147C044F044503B0802E2446A3C6AE9
:1009B0002E682F6846501D0804E337DC1FDE462AE8
:1009C00023D046501D081FE246503B081CE344C09C
:1009D0004BF00A0E4C6E6ADE036A00505FEC00F0CA
:1009E0002E6E44C04BF00A0E4C6E60DE01C04BF020
:1009F0000A0E4C6E5BDE036A00505FEC00F02F6E57
:100A000014DC462A01D0466A4850030836E147C044
:100A100045F045503B0802E2456A3C6A2B682C6869
:100A200046501D0804E301DCE9DD462A25D0465086
:100A30001D0821E246503B081EE345C04BF00A0E5C
:100A40004C6E34DE036A00505FEC00F02B6E45C044
:100A50004BF00A0E4C6E2ADE01C04BF00A0E4C6EB3
:100A600025DE036A00505FEC00F02C6E15EC01F0FF
:100A7000C5DD462A01D0466A02D015EC01F06BD6DE
:020A8000030071
:020000040030CA
:0E00000000C21E1EF385B100FFC0FFE0FF40EE
:00000001FF
;PIC18F6722
;CRC=F8A5  CREATED="23-Feb-23 20:27"
