:1000000015EF03F0F76A180FF66E000EF722000ED8
:10001000F86E0900F5501200C0F9A4B0999282F868
:1000200080908883C6A1867FF76A3C0FF66E000E2B
:10003000F722000EF86E0900F5501200EFDFBF7FC7
:10004000EA6A2C0EE96EEF500DE0060E016E006AB2
:10005000002EFED7012EFBD77B0E006E002EFED7A2
:10006000EF2EF3D712002A802B6A2B50090814E3D5
:100070002AB002D08C9001D08C8095909582000E91
:1000800083B2010E2D6E000E2AB0010E2D5CD8A495
:1000900003D02A702B2AE9D72B5009080DE3956A63
:1000A0008C68936A8A680A0E2C6ECADF936A8A6A21
:1000B0000A0E2C6EC5DFF3D7000E016EEBEF00F0D9
:1000C00066500BC066FF6430FEE366500AC066FFF0
:1000D0006430FEE3665009C066FF6430FEE366509C
:1000E00008C066FF6430FEE3959A8C8A959A8C9AD4
:1000F000000E016E1200665010C066FF6430FEE311
:10010000665011C066FF6430FEE3665012C066FFA1
:100110006430FEE3665013C066FF6430FEE3665051
:100120000CC066FF6430FEE366500DC066FF6430AD
:10013000FEE366500EC066FF6430FEE366500FC0FB
:1001400066FF6430FEE3959E8C8E959E8C9E080E15
:100150002C6E76DF000E016E12002A6A2A50070804
:1001600029E3036A2A50140FE96E000E0320EA6E99
:10017000EFCF8DFF966A800E2B6E2A50016E04E041
:10018000D8902B32012EFCD766502BC066FF64300E
:10019000FEE3929A898A929A899A010E2C6E50DF18
:1001A0006650666A6430FEE3929A898A929A899AC6
:1001B0002A2AD4D7000E016E01EF01F0979E8E9E81
:1001C000000E016E02EF01F0979C8E9C000E016EF6
:1001D00003EF01F048D7DF0E926E040E956E000E0D
:1001E000966E976E986EFF0E946EF19E986A8F6A67
:1001F00098908F800B6A0A6A096A086A61DF7BDF60
:10020000ACD7DCD7E1D7BD0EB16E000E016E40EF6A
:1002100003F02C50016A2B5C03E22BC000F00CD0E1
:10022000006A080E2D6E2B3600362C50005CD8B0BC
:10023000006E01362D2EF7D712002A6A2A500308C5
:100240004CE3036A2A50F0DE800B02E0938E02D06A
:10025000939E8A9E036A2A50E7DE400B02E0938C4D
:1002600002D0939C8A9C036A2A50DEDE200B02E0B7
:10027000938A02D0939A8A9A036A2A50D5DE100B89
:1002800002E0938802D093988A98938081B006D038
:100290002A50040DF3CF01F022D01DD0938281B2F9
:1002A00007D02A50040DF350010F016E18D013D05F
:1002B000938481B407D02A50040DF350020F016ECD
:1002C0000ED009D0938681B606D02A50040DF35083
:1002D000030F016E04D02A2AB1D7FF0E016E2BEF57
:1002E00002F0D8B203D0EA6A360EE96E006A016AFB
:1002F000026A036A366A376A386A396A35503410D6
:10030000331032102CE0200E3A6ED8902E362F3655
:100310003036313636363736383639363550395C40
:1003200008E13450385C05E13350375C02E132506B
:10033000365C0FE33250365E3350D8A0333C375E24
:100340003450D8A0343C385E3550D8A0353C395EA6
:10035000D88000360136023603363A2ED6D736C05C
:10036000EFFF37C0ECFF38C0ECFF39C0ECFF1200E4
:10037000B250B3CF03F00426B3500522000E06227C
:100380000722B36A020EB26E0000A1A204D0010ED1
:100390000626000E0722A192D89207C031F006C0AF
:1003A00030F005C02FF004C02EF0356A346A020E1A
:1003B000336E710E326E95DF01C002F000C001F0A5
:1003C0001200B250B3CF03F00426B3500522000E42
:1003D00006220722B36A020EB26E0000A1A204D068
:1003E000010E0626000E0722A192D89207C031F016
:1003F00006C030F005C02FF004C02EF0356A346A14
:10040000020E336E710E326E6CDF01C02DF000C033
:100410002CF02B502D5C0FE303E12A502C5C0BE3F6
:100420002A502C5C006E2B502D58036E00C001F03A
:10043000026E0FD00ED0FF0ED8802A542E6EFF0E03
:100440002B542F6E2C502E24016E2D502F20036E16
:10045000026E1200F2D601C021F02250FC0FD8B07B
:1004600062D0040F97EF02F0213C01D007D080DF6B
:1004700002C024F001C023F0010E226E54D0213CB2
:1004800002D0226A18D024C02BF023C02AF099DFB2
:1004900002C02BF001C02AF02B5203E12A501D08A4
:1004A0000AE2020E226E64DF02C024F001C023F0D3
:1004B000000E016E3AD037D0213C02D0226A18D00B
:1004C00024C02BF023C02AF07CDF02C02BF001C037
:1004D0002AF0025000080CE2FF0A03E12A50F30858
:1004E00007E246DF02C024F001C023F0030E226EB3
:1004F0001AD0213C02D0226A16D024C02BF023C08F
:100500002AF05FDF02C02BF001C02AF02B5203E17A
:100510002A50630808E22CDF02C024F001C023F057
:10052000000E016E02D0020E016EACEF02F0E82464
:10053000F76AF7364F0FF66E050EF722000EF86ECB
:10054000FB6E0A00F550FA6E0800F550F96E68046B
:100550007E04B804F2047ED7015245E121500C0814
:100560000FE3036A010E026E2150006E05E0D89081
:1005700002360336002EFBD70250081A0350091A20
:100580009FDD21500F0801E1298021500D0801E174
:10059000282A21500E0801E1280628C02BF0640EFD
:1005A0002C6E37DE01C02BF00A0E2C6E32DE036A91
:1005B000005028DD0E6E28C02BF00A0E2C6E29DEAE
:1005C00001C02BF00A0E2C6E24DE036A00501ADDE7
:1005D0000D6E28C02BF00A0E2C6E1BDE036A005035
:1005E00011DD0C6E88DD1200100E256E25BE1BD0AD
:1005F0000B680A682550006E05E0D8900B320A326D
:10060000002EFBD75DDD276A266A2750030809E321
:1006100003E12650E70805E39EDF262AD8B4272AFF
:10062000F4D72506E3D76AEF03F0F86AD09E639A01
:10063000000E646E200E636E9598958A959C286ACC
:100640002990C150C00B0F09C16E070EB46E0C6823
:100650000D680E680F6810681168126813681468D6
:10066000156816681768186819681A681B681C6886
:100670001D681E6A1F6A206A226A236A246AAAD534
:1006800028C02BF0640E2C6EC4DD01C02BF00A0EC6
:100690002C6EBFDD036A0050B5DC0E6E28C02BF057
:1006A0000A0E2C6EB6DD01C02BF00A0E2C6EB1DDE9
:1006B000036A0050A7DC0D6E28C02BF00A0E2C6ECA
:1006C000A8DD036A00509EDC0C6E15DD44DF29A016
:0806D00001D08AD7FBD703001B
:020000040030CA
:0E00000000C21E1EF385B100FFC0FFE0FF40EE
:00000001FF
;PIC18F6722
;CRC=03CA  CREATED="30-Jan-23 20:26"
